:020000040000FA
:100000000C944A020C9456080C942F080C9408087F
:100010000C94E1070C9472020C9472020C94BA07CF
:100020000C9472020C9472020C947D080C94E608F5
:100030000C9472020C9472020C9472020C94720270
:100040000C9472020C9472020C9472020C94720260
:100050000C9472020C9472020C9472020C9470074D
:100060000C9472020C9472020C9472020C94720240
:100070000C9472020C9472020C9472020C94720230
:100080000C9472020C9472020C9472020C94720220
:100090000C9472020C9472020C9472020C94720210
:1000A0000C9472020C9472020C947202080B0002FF
:1000B0000202000009040000010202000005240001
:1000C0001001052401010104240206052406000193
:1000D0000705810310004009040100020A00000026
:1000E00007050202400000070583024000000403E8
:1000F000090412010002EF0201409A230C80000162
:1001000001020301416461667275697400466561AC
:10011000746865722033327534007B226572726FA9
:1001200072223A22526164696F20496E69742046D6
:1001300061696C6564227D002C226972715F636F56
:10014000756E74223A002C226665695F6F6B223AE5
:10015000002C22727373695F6F6B223A002C226746
:100160006174655F706172697479223A002C22674C
:100170006174655F6666223A002C22676174655F70
:100180006D7362223A002C22676174655F7A657232
:100190006F223A002C22676174655F73686F727416
:1001A000223A002C22676174655F70617373223A92
:1001B000002C22676174655F64726F7070656422E1
:1001C0003A002C2269645F67617465223A002C2230
:1001D000736E725F64726F70706564223A002C22D5
:1001E000656D6974746564223A002C22736E725FC7
:1001F0006D696E223A002C2273796E635F746F6CA6
:10020000223A00222C2273796E635F73697A652229
:100210003A00222C2273796E6332223A22002C2279
:1002200073796E6331223A2200222C227061796C3C
:100230006F61645F6C656E223A00222C22727862D4
:1002400077223A22002C22727373695F7468726598
:100250007368223A2200222C22727373695F7261E2
:1002600077223A00222C22697271666C61677332C0
:10027000223A2200222C22697271666C6167733106
:10028000223A22002C226F706D6F6465223A2200A0
:100290007B226B6579223A22737461747573222C08
:1002A00022726573223A747275652C2272616469D8
:1002B0006F5F6F6B223A00227D00222C2276616CE8
:1002C000223A22007B226B6579223A22726567729C
:1002D000656164222C22726573223A747275652CF2
:1002E00022726567223A2200227D007B226E616DB8
:1002F00065223A2253656E736F7253746174696F2D
:100300006E526164696F222C226669726D77617228
:1003100065223A2200227D7D007D2C226461746179
:10032000223A7B226964223A22002C22676174659A
:10033000223A002C226372636F6B223A002C2263F4
:100340007263223A002C226973725F7573223A003D
:100350002C226C6E61223A002C226665695F687AF5
:10036000223A002C226665695F726177223A002C7E
:1003700022736E72223A002C226E6F697365223AE4
:10038000006C6174650073796E63002C2272737364
:10039000695F737263223A22007B226B6579223A8D
:1003A0002274657272615F756866222C226D6574B5
:1003B00061223A7B22646174615F74797065223ACC
:1003C0002274657272615F756866222C2272737383
:1003D00069223A007B226572726F72223A22526160
:1003E00064696F20496E6974204661696C65642296
:1003F0007D0000000000240027002A002D003000AE
:1004000000000000250028002B002E00310004040D
:1004100004040403040502020202040302020202AD
:100420000606060606060404020202040404080284
:10043000011040804010204080408008020401806C
:1004400040201002011080102040402000000002D7
:1004500000090F0000030401000C00000000000070
:1004600000000000000000000000002C22657272F5
:10047000223A220066616C73650074727565002211
:100480002C22726573223A007B226B6579223A2214
:100490000000EB1211241FBECFEFDAE0DEBFCDBFAC
:1004A00023E0A2E5B2E001C01D92A833B207E1F754
:1004B00012E0A0E0B1E0EEE3FFE202C005900D9291
:1004C000A235B107D9F712E0CAE4D2E004C02197FF
:1004D000FE010E94BA14C934D107C9F70E94280B43
:1004E0000C949D170C9400008CBD9DBD08959091B7
:1004F000B502911103C08FEF9FEF08954FB7F894A5
:1005000092E09093E9009091F200292F30E01216CA
:10051000130614F421E030E0232B29F084E68093C5
:10052000B4028091F100992339F02091F200211159
:1005300003C02BE62093E8004FBF9923E1F290E03F
:1005400008952FB7F89483E08093E9009091E80034
:10055000892F807295FF04C09091F20080E4891B7E
:100560002FBF08958091AC0281110DC082E080936D
:10057000A80284E08093A9021092AB021092AA0212
:1005800081E08093AC0288EA92E00895282F30E061
:10059000F901E45BFB4F9491F901E35DFB4F84911A
:1005A000225F3B4FF9012491222309F430C09923A3
:1005B000E9F091509F30D0F4E92FF0E0EE51FD4F7B
:1005C0000C94BA1410031403F10208030C03F6028E
:1005D000F602F60217031D03210325032B03F6027F
:1005E0002F03909180009F7790938000E22FF0E09E
:1005F000EE0FFF1FE050FC4FA591B4919FB7F89408
:10060000EC91611132C080958E238C939FBF089529
:10061000909180009F7DE8CF90918000977FE4CFFC
:1006200094B59F7794BDE2CF94B59F7DFBCF909119
:1006300090009F7790939000D9CF909190009F7DEC
:10064000F9CF90919000977FF5CF9091C0009F7760
:100650009093C000CBCF9091C0009F7DF9CF909137
:10066000C200977F9093C200C1CF8E2BCECFCF9385
:10067000DF9390E0FC01E35DFB4F2491825F9B4F91
:10068000FC0184918823D1F090E0880F991FFC0130
:10069000EE50FC4FA591B491FC01E050FC4FC59188
:1006A000D49161110EC09FB7F8948C91E22FE09520
:1006B0008E238C932881E223E8839FBFDF91CF9123
:1006C00008958FB7F894EC91E22BEC938FBFF6CF9F
:1006D0003FB7F8948091A4029091A502A091A60240
:1006E000B091A70226B5A89B05C02F3F19F001962F
:1006F000A11DB11D3FBFBA2FA92F982F8827BC017C
:10070000CD01620F711D811D911D43E0660F771FA2
:10071000881F991F4A95D1F708958F929F92AF92A3
:10072000BF92CF92DF92EF92FF924B015C010E9449
:1007300068036B017C010E9468036C197D098E09B6
:100740009F09683E734081059105A8F321E0821A54
:100750009108A108B10888EEC80E83E0D81EE11CFC
:10076000F11C81149104A104B10429F7FF90EF90CA
:10077000DF90CF90BF90AF909F908F9008952FB74C
:10078000F8946091A0027091A1028091A2029091D0
:10079000A3022FBF08950E9468036093980270938C
:1007A000990280939A0290939B0281E080939C022D
:1007B00080915B0290915C02A0915D02B0915E021B
:1007C0000196A11DB11D80935B0290935C02A093E2
:1007D0005D02B0935E0208950895409154025091D5
:1007E0005502209152023091530242175307B4F43C
:1007F0009091E8009570E1F39091E80092FD19C0A6
:100800008093F100809154029091550201968F736C
:100810009927892B19F48EEF8093E8008091540278
:10082000909155020196909355028093540281E075
:10083000089580E00895EF92FF920F931F93CF9356
:10084000DF93F82E192FE62E042F81E0860F880FF4
:100850000E94ED0383E00E94ED03CF2DD12FEC0E1B
:10086000FD2EF11CCE15DF05B9F007FF13C0FE0108
:1008700084910E94ED03182F80E00E94ED038123F4
:1008800021968111EFCFDF91CF911F910F91FF90B2
:10089000EF9008958881EDCF81E0F5CFDF92EF9260
:1008A000FF920F931F93CF93DF93D82E8A01EB0112
:1008B0007B01E40EF51ECE15DF0559F0D7FE12C000
:1008C000FE0184910E94ED0321968111F4CF0FEF78
:1008D0001FEFC801DF91CF911F910F91FF90EF9013
:1008E000DF9008958881EECF0F931F93CF93DF930E
:1008F0001F92CDB7DEB782E0898342E450E06CEA14
:1009000070E080E80E944E040E94B202DC01129660
:100910000D911C910115110589F0D801ED91FC9103
:100920000280F381E02DBE016F5F7F4FC801099502
:1009300097FD04C0F80100851185ECCF89810F90E7
:10094000DF91CF911F910F9108958F929F92AF9257
:10095000BF92CF92DF92EF92FF920F931F93CF93AC
:10096000DF936C017B018A0180910B01882309F4DC
:100970005BC08091B502882309F456C0809158026B
:1009800080FF05C08091E00082608093E000E80174
:10099000B12C8AEFA82E93E0892E2AE3922E20977D
:1009A00011F4BB20D9F10E94A10281110AC0AA94BE
:1009B000AA20D1F161E070E080E090E00E948D0318
:1009C000EECF8C171D0611F00CF08C2F9FB7F8940A
:1009D0008092E9002091E80025FD02C09FBFDFCF93
:1009E000282F30E0C21BD30BF701815020F041913A
:1009F0004093F100FACFE20EF31EBB2021F090925B
:100A0000E800B12CEBCF8091E80085FDE7CF909214
:100A1000E800BB24B394209709F3F3CF84E68093D6
:100A20005702101611063CF081E090E0F601938326
:100A3000828310E000E0C801DF91CF911F910F91F8
:100A4000FF90EF90DF90CF90BF90AF909F908F90EE
:100A50000895CF93DF931F92CDB7DEB76983DC0192
:100A6000ED91FC910280F381E02D41E050E0BE0168
:100A70006F5F7F4F09950F90DF91CF910895682F99
:100A800086EE92E00C9429050F931F93CF93DF938A
:100A90008C01D0E0C0E0F801EC0FFD1F64916623EB
:100AA00041F086EE92E00E942905892B11F02196F3
:100AB000F2CFCE01DF91CF911F910F91089583E086
:100AC0008093E9008091F200882319F08AE38093F3
:100AD000E80008950E94A10290E00895FC01848539
:100AE000958597FD05C02FEF3FEF35872487089543
:100AF0000C947702CF93DF93EC018C859D8597FF53
:100B000004C00E9477029D878C878C859D85DF912C
:100B1000CF910895FC018485958597FD0BC09FB703
:100B2000F89482E08093E9008091F2009FBF90E00A
:100B3000019608959FB7F89482E08093E900809130
:100B4000F2009FBF90E0089508958EBD00000DB49F
:100B500007FEFDCF8EB50895CF93C82F80E591E0B5
:100B60000E94740260E088E00E94C6028C2F8F779A
:100B70000E94A50580E00E94A505C82F61E088E0DD
:100B80000E94C6028C2FCF910895CF93DF93D82F68
:100B9000C62F80E591E00E94740260E088E00E9428
:100BA000C6028D2F80680E94A5058C2F0E94A50586
:100BB00061E088E0DF91CF910C94C60260911C0146
:100BC000662319F082E00E94C50560911A016B3E10
:100BD00019F089E10E94C50560911B01653019F08B
:100BE00088E30E94C50560911D01683819F08EE206
:100BF0000E94C50560911E016195660F643E19F063
:100C000089E20C94C505089560E38FE60E94C5054E
:100C100060E082E00E94C50565E083E00E94C505B2
:100C200060E084E00E94C50561E085E00E94C505A2
:100C300069E986E00E94C5056CE687E00E94C5056B
:100C400060E888E00E94C50560E089E00E94C50573
:100C50006BEE89E10E94C5056BEE8AE10E94C50535
:100C600060E087E30E94C50560E08DE30E94C50552
:100C700065E088E30E94C50560E08CE20E94C5053E
:100C800062E08DE20E94C50568E88EE20E94C5051B
:100C900063ED8FE20E94C50561E980E30E94C5050E
:100CA0006FE581E10E94C5056FE88CE30E94C505F0
:100CB00062E485E20E94C50564EE89E20C94C505F4
:100CC000CF92DF92EF92FF92F82E81E00E94AC0566
:100CD000837E682F6F2981E00E94C5050E94BF03B3
:100CE0006B017C0128EEC20E23E0D21EE11CF11C38
:100CF00087E20E94AC0587FD07C00E94BF036C1508
:100D00007D058E059F05A0F3FF90EF90DF90CF90BB
:100D10000895FC0101900020E9F73197AF01481BCD
:100D2000590BBC0186EE92E00C94A5048F929F9221
:100D3000AF92BF920F931F93CF93DF93CDB7DEB7E0
:100D4000A1970FB6F894DEBF0FBECDBF19A24230F7
:100D500008F44AE08E010F5D1F4F842E912CB12CB8
:100D6000A12CA50194010E943314E62FB901CA01F8
:100D7000EA30F4F4E05DD801EE938D01232B242BAF
:100D8000252B79F790E080E0109719F0CD010E94B3
:100D90008906A1960FB6F894DEBF0FBECDBFDF91D6
:100DA000CF911F910F91BF90AF909F908F9008951A
:100DB000E95CE1CF0C949606AB01682F70E090E0FF
:100DC00080E00C94DA06CF93DF930E944405EC0197
:100DD00086E491E00E9489068C0F9D1FDF91CF91E0
:100DE00008951F93CF93DF93182FEB0188E894E0C9
:100DF0000E94440586EB92E00E9489068FE794E00A
:100E00000E94440584E794E0112311F08AE794E0FE
:100E10000E94440511110CC0209751F08BE694E01C
:100E20000E944405CE010E94890682E20E943F058D
:100E30008DE70E943F0586E491E0DF91CF911F91FD
:100E40000C948906CF92DF92EF92FF92CF93DF93BB
:100E50006C01990FEE08FF08F7FE17C08DE20E94A3
:100E60003F05EC0166277727CB016C197D098E09B8
:100E70009F094AE00E9496068C0F9D1FDF91CF913B
:100E8000FF90EF90DF90CF9008954AE0C701B60140
:100E9000DF91CF91FF90EF90DF90CF900C9496066A
:100EA000CF93DF9325E0AC01249FC001259F900DD7
:100EB00011246AE070E00E94A614D82FC92FCB013C
:100EC0000E9422078EE20E943F058D2F9C2F97FFE4
:100ED00003C0919581959109DF91CF910C942207E0
:100EE0001F920F920FB60F9211242F933F938F935F
:100EF0009F93AF93BF938091A0029091A102A09184
:100F0000A202B091A30230919F0226E0230F2D3759
:100F100058F50296A11DB11D20939F028093A00257
:100F20009093A102A093A202B093A3028091A40285
:100F30009091A502A091A602B091A7020196A11DD1
:100F4000B11D8093A4029093A502A093A602B09332
:100F5000A702BF91AF919F918F913F912F910F90D9
:100F60000FBE0F901F90189529E8230F0396A11D1F
:100F7000B11DD2CF1F920F920FB60F9211242F9353
:100F80003F934F935F936F937F938F939F93AF9311
:100F9000BF93EF93FF93E0911401F0911501099530
:100FA000FF91EF91BF91AF919F918F917F916F9141
:100FB0005F914F913F912F910F900FBE0F901F9017
:100FC00018951F920F920FB60F9211242F933F93F3
:100FD0004F935F936F937F938F939F93AF93BF9341
:100FE000EF93FF93E0911201F09113010995FF91A6
:100FF000EF91BF91AF919F918F917F916F915F9191
:101000004F913F912F910F900FBE0F901F90189509
:101010001F920F920FB60F9211242F933F934F936D
:101020005F936F937F938F939F93AF93BF93EF9350
:10103000FF93E0911001F09111010995FF91EF915B
:10104000BF91AF919F918F917F916F915F914F91E0
:101050003F912F910F900FBE0F901F9018951F92E8
:101060000F920FB60F9211242F933F934F935F93DC
:101070006F937F938F939F93AF93BF93EF93FF9360
:10108000E0910E01F0910F010995FF91EF91BF9151
:10109000AF919F918F917F916F915F914F913F9110
:1010A0002F910F900FBE0F901F9018951F920F92C7
:1010B0000FB60F9211242F933F934F935F936F932B
:1010C0007F938F939F93AF93BF93EF93FF93E091A1
:1010D0000C01F0910D010995FF91EF91BF91AF9136
:1010E0009F918F917F916F915F914F913F912F9140
:1010F0000F900FBE0F901F9018951F920F920FB672
:101100000F9211248F939F938091E1009091E100C1
:10111000937F9093E10083FF0FC01092E90091E06C
:101120009093EB001092EC0092E39093ED001092FC
:10113000B50298E09093F00082FF1CC093E090937A
:10114000E9009091F200992319F09AE39093E80056
:1011500090915702992329F09091570291509093C2
:1011600057029091B402992329F09091B4029150C2
:101170009093B40284FF18C08091E2008E7E81605B
:101180008093E2008091E1008F7E8093E100809166
:1011900058028E7E8061809358029F918F910F90AC
:1011A0000FBE0F901F90189580FFF7CF8091E2003F
:1011B0008E7E80618093E2008091E1008E7E80933C
:1011C000E100809158028E7E8160E5CF1F920F92E0
:1011D0000FB60F921124CF92DF92EF92FF920F93EE
:1011E0001F932F933F934F935F936F937F938F93AF
:1011F0009F93AF93BF93EF93FF93CF93DF93CDB7BD
:10120000DEB76C97DEBFCDBF1092E9008091E80099
:1012100083FF2FC089E0FE017596EE2EDF2E8150F0
:1012200029F09091F10090833196F9CF84E6809374
:10123000B40282EF8093E8008D8987FF39C09091D6
:10124000E80090FFFCCF982F907609F033C19E897B
:101250004F89588D2F89F88C911131C0803861F5F4
:10126000809159028093F1001092F1008EEF8093EB
:10127000E8006C960FB6F894DEBF0FBECDBFDF91CD
:10128000CF91FF91EF91BF91AF919F918F917F91FE
:101290006F915F914F913F912F911F910F91FF900F
:1012A000EF90DF90CF900F900FBE0F901F9018958A
:1012B0009EEF9093E800C7CF1092F100D5CF913008
:1012C00059F48111D3CF4130510581F680915902F3
:1012D0008D7F80935902CACF933049F48111C6CFD4
:1012E0004130510519F6809159028260F2CF953054
:1012F00041F48091E80080FFFCCF20682093E30058
:10130000B5CF963009F0A8C00B8D1C8D22E010924D
:10131000E9001092550210925402F2122EC010925F
:101320005302109252020E9474041F8299E0998322
:10133000FA8291E09E8390EA98879AEF99872091AC
:10134000540230915502275F3F4F3C832B838D839E
:101350001092E90010925502109254021093530219
:101360000093520249E050E0BE016F5F7F4F80E082
:101370000E944E040E94740479CF1093530200938C
:1013800052020E94B202DC0112960D911C910115CD
:10139000110509F457C1D801ED91FC910480F58144
:1013A000E02D6E2D7D2DC8010995009709F045C1EE
:1013B000F80100851185EBCFF3E0FF120EC08F8995
:1013C000882309F440C0823061F440E86CE08DE08D
:1013D00091E00E941B04811149CF81E28093EB00D0
:1013E00048CF813029F440E868E084E091E0F1CF13
:1013F000833099F70E94B202DC011296ED90FC90C6
:101400008E010F5F1F4F6801E114F10479F0D701DD
:10141000ED91FC910680F781E02DB801C701099597
:10142000080F111DF701E084F184EECFD8011C9262
:10143000F60101900020E9F73197BF016C197D0991
:1014400040E0C601C6CF6EEE70E0FB01449150E073
:1014500080E80E944E040ACF973009F4BECF98303E
:1014600021F481E08093F10001CF993009F0FECEA4
:10147000837009F0B2CFE4E3F1E081E031E096E37C
:101480002191222371F08093E9003093EB00DF017A
:1014900011972C912093EC009093ED008F5F873093
:1014A00079F78EE78093EA001092EA008F898093A3
:1014B000B502DCCE8B8D9C8D1092E9001092550206
:1014C000109254029093530280935202898D81119D
:1014D0009AC08E899D89913A49F4813209F07DCF75
:1014E00047E050E064E071E080E0B3CF913209F072
:1014F00074CF833269F48F89988DB0E0A0E0809337
:10150000000190930101A0930201B0930301AECEBC
:101510008032A9F48091E80082FFFCCF88E0E4E00B
:10152000F1E0815029F09091F10090833196F9CF4C
:1015300084E68093B4028BEF8093E80097CE8232EA
:1015400009F094CE8F8980930B01EEEFFFE7859130
:1015500094918B3F9C4D51F1E0E0F8E080910401C3
:1015600090910501A0910601B0910701803B944044
:10157000A105B105F1F480910B0180FD1AC0EE3F89
:101580008AE0F80789F587E797E791838083809160
:1015900060008093560288E19BE00FB6F894A8950E
:1015A000809360000FBE9093600060CEEEEFFAE093
:1015B000D5CF808191818737974709F057CEA8957D
:1015C00080916000886180936000809156028093D2
:1015D0006000EE3F2AE0F20789F08091FE0A9091C8
:1015E000FF0A9183808342CE80819181873798075B
:1015F00051F29093FF0A8093FE0AC5CF1092FF0A22
:101600001092FE0A33CE0E94B202DC0112960D91B6
:101610001C910115110509F4E0CED801ED91FC9162
:101620000190F081E02D6E2D7D2DC801099581116D
:101630001DCEF80100851185ECCF181619060CF4A3
:1016400015CECBCEF1E0FF12B7CE62EF70E0FDCE4B
:10165000CF93DF93CDB7DEB7A1970FB6F894DEBF77
:101660000FBECDBF789484B5826084BD84B581609F
:1016700084BD85B5826085BD85B5816085BD80915D
:101680006E00816080936E001092810080918100D5
:1016900082608093810080918100816080938100CD
:1016A00080918000816080938000809191008260B1
:1016B000809391008091910081608093910080914E
:1016C00090008160809390008091C100846080933D
:1016D000C1008091C10082608093C1008091C100EF
:1016E00081608093C1008091C30081608093C300BA
:1016F0008091C00082608093C0008091C2008160B0
:101700008093C20080917A00846080937A008091F7
:101710007A00826080937A0080917A008E7F809335
:101720007A0080917A00806880937A001092B502E6
:1017300010925902109258028091D70081608093D4
:10174000D70080EA8093D80089B58F7E89BD89B59E
:10175000826089BD09B400FEFDCF61E070E080E0E9
:1017600090E00E948D038091D8008F7C80618093EF
:10177000D8008091E000807F8093E0008091E100BC
:101780008E7E8093E1008DE08093E2008FEF9FEFEB
:101790009093F3028093F20261E088E00E943703A5
:1017A00061E088E00E94C60260E087E00E943703A3
:1017B0001FB7F89480915A02811127C0EFE1F4E03D
:1017C0008491EEE3F4E09491E82FF0E0EE0FFF1F38
:1017D000EE50FC4FA591B491EC91E92321F461E026
:1017E00081E10E94C60261E081E10E9437038CB56D
:1017F00080618CBD8CB580648CBD61E08FE00E94FF
:10180000370361E080E10E94370380915A028F5FC5
:1018100080935A021FBF61E084E00E94370361E0B9
:1018200084E00E94C6026AE070E080E090E00E94DE
:101830008D0360E084E00E94C6026AE070E080E010
:1018400090E00E948D0384E00E9460060E940406DE
:101850000E94DE058FE20E94AC05833D09F41AC2A6
:1018600010929E028AE191E00E94E3068BEC93E0E5
:10187000909315018093140180916A008063809396
:101880006A00EE9A80E10E9460061E0121E1220EAC
:10189000311CCE0145969F8B8E8BFE0131966F01D8
:1018A00080919E02882309F45EC010919702112353
:1018B00021F080916D02811156C087E20E94AC0533
:1018C00080FF51C0111121C084E20E94AC0590E05C
:1018D000919581959109909396028093950281E06C
:1018E000809397028091630290916402A0916502B7
:1018F000B09166020196A11DB11D80936302909381
:101900006402A0936502B093660280916D0281111A
:101910002AC060E28EE10E94C5058CE891E0019743
:10192000F1F781E20E94AC05182F82E20E94AC051B
:10193000912F909368028093670281E080936D02FB
:1019400080915F0290916002A0916102B091620269
:101950000196A11DB11D80935F0290936002A09338
:101960006102B093620286EE92E00E948A05892BA2
:1019700009F44EC386EE92E00E946E058D3099F315
:10198000E0919D028A3009F037C3AE2FB0E0AA542F
:10199000BD4F1C92EE2309F47AC16AE370E086EB36
:1019A00092E00E94DB148C01009719F0FC01119267
:1019B0008F0169E471E086EB92E00E94E614892BC6
:1019C00009F072C18EE20E94AC05182F80E992E006
:1019D0000E94440580919E0290E00E94220784E8C4
:1019E00092E00E94440581E00E94AC0560E170E055
:1019F0000E94DC0684E792E00E94440587E20E9490
:101A0000AC0560E170E00E94DC0684E692E00E9492
:101A1000440588E20E94AC0560E170E00E94DC06AB
:101A200086E592E00E94440584E20E94AC056AE0EB
:101A300070E00E94DC0685E492E00E94440589E2A1
:101A40000E94AC0560E170E00E94DC068AE392E04F
:101A50000E94440589E10E94AC0560E170E00E94AB
:101A6000DC0689E292E00E94440588E30E94AC050E
:101A70006AE070E00E94DC068EE192E00E9444057C
:101A80008FE20E94AC0560E170E00E94DC0682E11A
:101A900092E00E94440580E30E94AC0560E170E0A2
:101AA0000E94DC0683E092E00E944405812F90E0D2
:101AB00003E0959587950A95E1F787709927019638
:101AC0000E94220786EF91E00E9444051770812F43
:101AD00090E00E9422078AEE91E00E9444058091E6
:101AE0001F01082E000C990B0E9422078EED91E039
:101AF0000E94440560916E0270916F0280917002A5
:101B0000909171024AE050E00E94DA068EEC91E07A
:101B10000E94440560917202709173028091740278
:101B2000909175024AE050E00E94DA0682EC91E062
:101B30000E9444056AE070E0809120010E94DC066A
:101B400081EB91E00E9444056091790270917A02E4
:101B500080917B0290917C024AE050E00E94DA067C
:101B600083EA91E00E94440560917D0270917E02BB
:101B700080917F02909180024AE050E00E94DA0654
:101B800084E991E00E944405609181027091820293
:101B900080918302909184024AE050E00E94DA062C
:101BA00086E891E00E94440560918502709186026A
:101BB00080918702909188024AE050E00E94DA0604
:101BC00089E791E00E9444056091890270918A0240
:101BD00080918B0290918C024AE050E00E94DA06DC
:101BE0008DE691E00E94440560918D0270918E0215
:101BF00080918F02909190024AE050E00E94DA06B4
:101C00008DE591E00E9444056091910270919202ED
:101C100080919302909194024AE050E00E94DA068B
:101C200081E591E00E944405609163027091640235
:101C300080916502909166024AE050E00E94DA06C7
:101C400086E491E00E94440560915F027091600219
:101C500080916102909162024AE050E00E94DA06AF
:101C600088E391E00E94440560915B0270915C0200
:101C700080915D0290915E024AE050E00E94DA0697
:101C80008DE70E943F0586E491E00E94890610924C
:101C90009D0269CE81E00E94AC058F3F09F4E0CD42
:101CA00081E080939E02E2CD60E571E086EB92E0F8
:101CB0000E94E614892B69F48BEE92E00E944405A1
:101CC0008AE391E00E94890688EE92E00E94E30692
:101CD000DECF0115110521F0F8018081811104C0CA
:101CE00068E571E080E01EC063E771E086EB92E09A
:101CF0000E94E614892BC9F460E671E0C8010E94D5
:101D0000E61467E671E0892B69F784E00E946006BB
:101D10000E9404060E94DE0580E10E94600670E0D9
:101D200060E081E00E94F106B2CF6AE771E086EBE5
:101D300092E00E94E614892B69F450E040E070E0E4
:101D400060E0C8010E94001360931A0189E10E94BB
:101D5000C505E5CF6FE771E086EB92E00E94E614DF
:101D6000892BC9F44AE050E070E060E0C8010E94AD
:101D700000138B019C010150110921093109003424
:101D800011052105310518F067E871E0ABCF6093CC
:101D90001B0188E3DCCF6DE871E086EB92E00E94E6
:101DA000E614892BC9F468E971E0C8010E94E614C1
:101DB000892B31F410921C0160911C0182E0C7CF85
:101DC0006CE971E0C8010E94E614892B09F088CF04
:101DD000F8E0F0931C01F0CF60EA71E086EB92E04E
:101DE0000E94E614892BC9F44AE050E070E060E0FC
:101DF000C8010E9400138B019C0101581F4F2F4FF7
:101E00003F4F0C3611052105310508F0BDCF609319
:101E10001E016195660F89E29ACF6CEA71E086EB4C
:101E200092E00E94E614892B91F44AE050E070E0C1
:101E300060E0C8010E9400136230710581059105C0
:101E400018F064EB71E04ECF6093200168CF6BEB2C
:101E500071E086EB92E00E94E614892B91F44AE04F
:101E600050E070E060E0C8010E9400136932710523
:101E70008105910518F063EC71E034CF60931F0188
:101E80004ECF6EEC71E086EB92E00E94E614892B57
:101E900031F54AE050E070E060E0C8010E940013B4
:101EA0008B019C01015011092109310908301105EC
:101EB0002105310518F068ED71E014CF20911D0166
:101EC000277CAB0141505109B3E0440F551FBA952F
:101ED000E1F7622F642B60931D018EE238CF62EE32
:101EE00071E086EB92E00E94E614892BA1F44AE0AF
:101EF00050E070E060E0C8010E9400136830710596
:101F00008105910518F06BEE71E0ECCE20911D017A
:101F1000287F622BE0CF65EF71E086EB92E00E94B4
:101F2000E614892B99F56AE370E0C8010E94DB147E
:101F30006EEF71E0009709F4D5CEFC0111927F019C
:101F40004AE050E070E060E0C8010E9400134B01DD
:101F50005C0140E150E070E060E0C7010E940013C6
:101F6000950184010150110921093109043011053D
:101F70002105310508F008CF6F3F710581059105F6
:101F800011F008F001CF8EE2880DE1CE6BE072E037
:101F900086EB92E00E94E614892B59F540E150E06F
:101FA00070E060E0C8010E940013162F84EC92E0FC
:101FB0000E944405103118F480E30E943F0560E15F
:101FC00070E0812F0E94DC068AEB92E00E944405BB
:101FD000812F0E94AC05182F803118F480E30E94F5
:101FE0003F0560E170E0812F0E94DC0687EB92E004
:101FF0006DCE63E172E076CEEF3208F0B4CC91E0C2
:102000009E0F90939D02F0E0EA54FD4F8083ABCC8D
:10201000F0909E02FF2009F4F0C188E20E94AC0516
:102020008F3F09F4E6C190919C02911102C082FF9A
:10203000E0C1F89480919C02882309F441C040904B
:1020400098025090990260909A0270909B021092B0
:102050009C02789485E0F10111928A95E9F700914C
:102060001B01053008F005E08091970281110BC03B
:1020700084E20E94AC0590E091958195910990933E
:1020800096028093950288E10E94AC0589A380E5C1
:1020900091E00E94740260E088E00E94C60280E045
:1020A0000E94A5053A8E298E51018A2D821980172A
:1020B00060F480E00E94A505F50181935F01F5CFF2
:1020C0000E9468032B013C01C2CF61E088E00E94BE
:1020D000C6020E9468034B015C0184189508A6089B
:1020E000B708E12C11E0053009F076C0210180E04D
:1020F000F20191912F01892798E087FFE5C1880FB0
:10210000F7E08F279150C9F72E893F8924153505AF
:1021100079F7EE24E3949D899813E12CF10110E006
:10212000712C188E612CA191A111D0C163942A2F1A
:1021300030E0C901959587959C8F8B8FC901959546
:10214000879595958795B901B3E075956795BA958B
:10215000E1F7962F98279A27A90175E0559547959D
:102160007A95E1F7492741704D8F1E8E4D8D5E8D1A
:10217000440F551F9B8D96279A27D90156E0B59598
:10218000A7955A95E1F7A927A170AF8F18A2AF8D37
:10219000B8A1AA0FBB1FAA0FBB1F4A2B5B8D8527B7
:1021A0006827A4E035952795AA95E1F76227617025
:1021B000462B140F4E165F0609F0B5CF84E0681663
:1021C00009F48EC192E0971508F48CC1E88DE430D3
:1021D00009F48AC1111115E024E0129FF0011124C5
:1021E000E358FD4F80819181A281B3810196A11DA9
:1021F000B11D80839183A283B3831123C1F08091A9
:1022000020018823A1F08091790290917A02A09117
:102210007B02B0917C020196A11DB11D80937902D1
:1022200090937A02A0937B02B0937C02F12C809170
:102230001F0118160CF05AC190917802992309F4E5
:1022400055C12091950230919602409176025091AD
:102250007702241B350B880F990B281739070CF0D0
:1022600045C18091720290917302A0917402B09165
:1022700075020196A11DB11D8093720290937302A5
:10228000A0937402B093750289E993E00E9444051B
:1022900080919502909196020E9450078BE893E0FE
:1022A0000E94440580919702882309F47FC186E843
:1022B00093E00E94440582E20E943F0580917802EB
:1022C0008823D1F087E793E00E944405809176024D
:1022D000909177020E9450078FE693E00E94440598
:1022E000809195029091960220917602309177022A
:1022F000821B930B0E94500780916D02882341F14D
:1023000083E693E00E944405809167029091680201
:102310000E94220788E593E00E944405A09167028D
:10232000B09168022DE330E00E94C0142B013C0103
:102330004AE077FE0BC08DE20E943F0566277727B3
:10234000CB0164197509860997094AE00E9496062F
:1023500080E593E00E94440589A1877090E00E9487
:10236000220785E493E00E9444054AE050E0C5015D
:10237000B4010E94DA06053089F48DE393E00E94EF
:1023800044056AE070E08D890E94DC0683E393E0F7
:102390000E9444058E2D90E00E9422078AE293E07D
:1023A0000E9444056AE070E0812F0E94DC0689E10A
:1023B00093E00E944405E98DFA8D1191FA8FE98F1F
:1023C000103118F480E30E943F0560E170E0812F36
:1023D0000E94DC062E893F89898D9A8D281739073E
:1023E00051F785E193E00E94E30610926D0210928E
:1023F000970280919E02811126C00E94BF03009126
:102400001601109117012091180130911901601BDC
:10241000710B820B930B97FD4FC084ED93E00E94EC
:10242000E3060E94BF03605F784D8F4F9F4F60931C
:1024300016017093170180931801909319018091F0
:102440009E028823C9F180919C02811135C00E94AF
:10245000BF030091690210916A0220916B023091D2
:102460006C02601B710B820B930B97FD25C088E2F9
:102470000E94AC0582FD12C084E20E94AC0590E08F
:1024800091958195910920917802211192C09093A4
:1024900077028093760281E0809378020E94BF03E6
:1024A0006C507E4F8F4F9F4F6093690270936A020A
:1024B00080936B0290936C0280E090E0892B09F48A
:1024C000EFC90E940000ECC9880F1CCEAF3F29F471
:1024D000388D3F5F388F73942ACEA7FF28CEFBCF6D
:1024E00012E07ACE13E078CE14E076CEFF2009F425
:1024F000CBCE809195029091960297FD019695958D
:10250000879599275C894B893A892989EE20C1F101
:102510009F938F938D891F928F931F925F931F922A
:102520004F931F923F931F922F938FE192E09F93BF
:102530008F931F9280E18F93DF92CF920E94EF14CE
:10254000C6010E94890686E491E00E9489060FB6C2
:10255000F894DEBF0FBECDBF80916E0290916F02E6
:10256000A0917002B09171020196A11DB11D8093DE
:102570006E0290936F02A0937002B093710284CEAA
:102580009F938F931F925F931F924F931F923F933E
:102590001F922F93EAE3F2E0FF93EF931F9280E103
:1025A0008F93DF92CF920E94EF14CACF81E893E01D
:1025B00080CE2091760230917702821B930B43E00C
:1025C000959587954A95E1F7820F931F909377022F
:1025D0008093760263CFE6EEF2E01382128288EEF9
:1025E00093E0A0E0B0E084839583A683B78385E27F
:1025F00091E0918380838FEF9FEF95878487089583
:10260000B0E0A0E0E6E0F3E10C9461145C016B0142
:102610007A016115710519F0FB0191838083E11442
:10262000F10451F0C7010297839730F040E030E0A9
:1026300020E090E072C05E01E5012196F501108175
:10264000812F90E00E941714892BA9F71D3201F504
:102650002196F501118101E0E114F10409F4DAC0D9
:10266000F0E1EF16F10409F082C0103359F48881CB
:102670008F7D883509F076C0198122960260F0E1DD
:10268000EF2EF12C812C912CA12C88E0B82E8CC03F
:102690001B3221F4E5012296F501118100E0DCCF27
:1026A000EAE0EE16F10409F4BBC0F0E1EF16F10424
:1026B00009F06DC0E7CF78E0E72EF12C812C912C4A
:1026C000A12C60E1B62E70C03FE9310F3A3128F4F9
:1026D00039EA332E80C021E09AC0302F3170C11406
:1026E000D10431F0222309F12197F601D183C0836F
:1026F00027FF21C060E070E080E090E8311104C065
:102700006FEF7FEF8FEF9FE722E230E030933703E8
:1027100020933603462F372F282F642F732F822FB5
:10272000CDB7DEB7E1E10C947D1401FF04C0229720
:10273000F601D183C083332341F090958095709545
:1027400061957F4F8F4F9F4FE5CF97FFE3CF82E299
:1027500090E090933703809336036FEF7FEF8FEF16
:102760009FE7D8CF10E3E114F10409F4A4CF28E0E7
:10277000E216F10409F4A2CF0CF092CF812C912C37
:10278000A12CE0E4BE2E82E0E816F10469F060E0DE
:1027900070E080E090E897010F2C000C440B550B83
:1027A0000E94331449015A0120E060E070E0CB013F
:1027B00027010F2C000C66087708FE0150ED352E1E
:1027C000310E39E0331540F43FEB310F3A3108F068
:1027D0007BCF49EC342E310E3E141F040CF07DCF1C
:1027E00027FD15C086169706A806B90678F0A3013E
:1027F00092010E942314630D711D811D911D613092
:102800007105810520E8920708F465CF2FEF219626
:102810001081D3CF103309F42ACF2AE0E22EF12C15
:102820009CEC892E982CA82C9CE0B92EBDCF911140
:102830000C942014803219F089508550C8F70895FF
:10284000992788270895DB018F939F930E94551441
:10285000BF91AF91A29F800D911DA39F900DB29F3C
:10286000900D11240895A1E21A2EAA1BBB1BFD0195
:102870000DC0AA1FBB1FEE1FFF1FA217B307E4075F
:10288000F50720F0A21BB30BE40BF50B661F771FB7
:10289000881F991F1A9469F7609570958095909597
:1028A0009B01AC01BD01CF0108950E949714A59F23
:1028B000900DB49F900DA49F800D911D112408953B
:1028C0002F923F924F925F926F927F928F929F9240
:1028D000AF92BF92CF92DF92EF92FF920F931F932E
:1028E000CF93DF93CDB7DEB7CA1BDB0B0FB6F894DF
:1028F000DEBF0FBECDBF09942A88398848885F841F
:102900006E847D848C849B84AA84B984C884DF808F
:10291000EE80FD800C811B81AA81B981CE0FD11D73
:102920000FB6F894DEBF0FBECDBFED010895A29F94
:10293000B001B39FC001A39F700D811D1124911D93
:10294000B29F700D811D1124911D089597FB072ED4
:1029500016F4009407D077FD09D00E94C71407FC35
:1029600005D03EF4909581959F4F0895709561959F
:102970007F4F0895EE0FFF1F0590F491E02D09940D
:102980000E949714B7FF0895821B930B0895AA1B0A
:10299000BB1B51E107C0AA1FBB1FA617B70710F04A
:1029A000A61BB70B881F991F5A95A9F7809590957C
:1029B000BC01CD010895FC018191861721F0882387
:1029C000D9F7992708953197CF010895FB01DC01CC
:1029D0008D91019080190110D9F3990B0895AEE003
:1029E000B0E0E5EFF4E10C946E140D891E898F8937
:1029F000988D26E02C831A83098397FF02C080E01C
:102A000090E801979E838D83AE01455E5F4F698D8F
:102A10007A8DCE0101960E941F154D815E8157FD72
:102A20000AC02F813885421753070CF49A01020F10
:102A3000131FF80110822E96E4E00C948A14ABE088
:102A4000B0E0E5E2F5E10C9460147C013B018A0101
:102A5000FC0117821682838181FFC8C1CE010196D5
:102A60005C01F7019381F30193FD859193FF8191BF
:102A70003F01882309F453C1853239F493FD8591D0
:102A800093FF81913F01853229F4B70190E00E94C4
:102A90000F17E7CF912C212C312CFFE1F31538F0E3
:102AA0008B3211F190F4803209F1833229F137FC35
:102AB0003CC020ED280F2A3050F536FE20C08AE0B9
:102AC000989E200D1124922E06C08D3291F08033F5
:102AD00071F7689430F8F30193FD859193FF81912C
:102AE0003F018111DACF21C0689431F8689432F83F
:102AF000F2CF689433F8EFCF689434F8ECCFEAE083
:102B00002E9E200D1124222E689435F8E4CF8E32AB
:102B100029F436FC04C1689436F8DDCF8C3619F4FC
:102B2000689437F8D8CF8836B1F2982F9F7D9554A6
:102B30009330E0F08336A1F18337C1F1833509F09A
:102B400063C02801F2E04F0E511CF801C080D18013
:102B5000692D70E036FC02C06FEF7FEFC6010E9466
:102B6000F9164C01689437F882010AC00C5F1F4FB8
:102B7000FFE3F98388248394912C6501E89437F866
:102B800033FE2DC0522C8114910471F5552009F4A7
:102B900068CFB70180E290E00E940F175A94F6CFF9
:102BA000F801808189830E5F1F4FE4CF2801F2E096
:102BB0004F0E511CF801C080D180692D70E036FCA9
:102BC00002C06FEF7FEFC6010E9404174C01820123
:102BD000D5CFB70180E290E00E940F172A94281405
:102BE000190409F0B0F7CECFF60137FC859137FE16
:102BF00081916F01B70190E00E940F1751105A9414
:102C0000F1E08F1A9108BFCF843619F0893609F0A8
:102C100077C0F80137FE6BC060817181828193813A
:102C20000C5F1F4FF32DFF763F2E97FF09C0909545
:102C30008095709561957F4F8F4F9F4F689437F8BF
:102C40002AE030E0A5010E943F17C82ECA188C2C3C
:102C5000432C36FE0CC0E89440F8C91440F434FE0E
:102C600005C032FC03C0F32DFE7E4F2E892C44FE9E
:102C700095C0FE01EC0DF11D8081803309F087C005
:102C8000242D297E422E842D8870582E43FC95C019
:102C900040FE8FC09C2C821418F42C0C922C981897
:102CA00044FE91C0B70180E390E00E940F1742FEFE
:102CB00009C088E790E041FE02C088E590E0B701D6
:102CC0000E940F17C91408F48AC0CA94D12C9FEF30
:102CD000C91AD90ACA0CDB1CF60182916F01B7012F
:102CE00090E00E940F17AC14BD04B1F74FCF608184
:102CF0007181072E000C880B990B0E5F1F4F92CF2E
:102D0000D32CE894D4F82AE030E0853739F1232D2C
:102D1000297FD22E8F3601F148F48835A9F0F701CA
:102D2000868197812B96E2E10C947C14803749F0E0
:102D30008837A9F7D4FE02C06894D2F820E130E0C9
:102D40000DC06894D4F8F6CF34FE03C0822F86609D
:102D5000D82E20E132E002C028E030E0F801D7FEB2
:102D60000FC060817181828193810C5F1F4FA5012B
:102D70000E943F17C82ECA183D2CE89437F867CF39
:102D80006081718190E080E00E5F1F4FF0CF42FCC8
:102D900002C0839478CF8394839475CF842D8678F2
:102DA00009F471CFF6CFB70180E290E00E940F17CF
:102DB00083948214C0F3512C73CF522C5818821470
:102DC00008F46ECFF8CF842D867809F47BCF8BE2A0
:102DD00041FE80E247FC8DE2B70190E071CFB70180
:102DE00080E390E00E940F179A946CCF8FEF9FEFD3
:102DF00099CFFC010590615070400110D8F7809583
:102E000090958E0F9F1F0895FC01615070400190B6
:102E10000110D8F7809590958E0F9F1F08950F93FE
:102E20001F93CF93DF93182F092FEB018B8181FD27
:102E300009C01FEF0FEF812F902FDF91CF911F91CE
:102E40000F91089582FF14C02E813F818C819D8156
:102E5000281739073CF4E881F981CF01019699835D
:102E6000888310838E819F8101969F838E83E3CF19
:102E7000E885F985812F0995892BA1F3DACFFA012D
:102E8000AA27283051F1203181F1E8946F936E7FA9
:102E90006E5F7F4F8F4F9F4FAF4FB1E03ED0B4E09A
:102EA0003CD0670F781F891F9A1FA11D680F791FDB
:102EB0008A1F911DA11D6A0F711D811D911DA11DEC
:102EC00020D009F468943F912AE0269F11243019FC
:102ED000305D3193DEF6CF010895462F4770405D97
:102EE0004193B3E00FD0C9F7F6CF462F4F70405D46
:102EF0004A3318F0495D31FD4052419302D0A9F7A1
:102F0000EACFB4E0A6959795879577956795BA959A
:102F1000C9F700976105710508959B01AC010A2E60
:102F200006945795479537952795BA95C9F7620F37
:102F3000731F841F951FA01D0895F894FFCFFFFFF6
:102F4000FFFF00E1000000000000EC03EC03EC03D5
:102F5000EC03EC0310270000EB0500888E00010055
:102F60000000002905A5046A055F058A056E057A3B
:102F70000500C18081000000352E312E302D746592
:102F8000727261000D0A0073746174757300766566
:102F90007273696F6E0062616420617267006673AC
:102FA0006B74616700756E737570706F72746564B1
:102FB0002070726573657400727862770072785F52
:102FC00073697A650072616E6765006D6F64756C18
:102FD0006174696F6E0066736B006F6F6B00727364
:102FE00073695F7468726573680069645F676174B0
:102FF000650030206F72203100736E725F6D696EF4
:103000000072616E676520302D34300073796E6315
:103010005F73697A650072616E676520312D3800D3
:1030200073796E635F746F6C0072616E67652030D8
:103030002D370073796E635F76616C0077616E7413
:10304000206964783A6865780072656772656164C2
:1030500000756E6B6E6F776E206B65790030312571
:1030600030325825303258253032582530325825E4
:103070003032582530325800303025303258253023
:103080003258253032582530325825303258000019
:1070000055C000006EC000006CC000006AC00000E7
:1070100068C0000066C0000064C0000062C00000DC
:1070200060C000005EC00000DAC400005AC000006A
:1070300058C0000056C0000054C0000052C00000FC
:1070400050C0000076C000004CC000004AC00000E4
:1070500048C0000046C0000044C0000042C000001C
:1070600040C000003EC000003CC000003AC000002C
:1070700038C0000036C0000034C0000032C000003C
:1070800030C000002EC000002CC000002AC000004C
:1070900028C0000026C0000024C0000022C000005C
:1070A00020C000001EC000001CC0000011241FBE34
:1070B000CFEFDAE0DEBFCDBF11E0A0E0B1E0EEEF50
:1070C000FEE702C005900D92AA3CB107D9F711E086
:1070D000AAECB1E001C01D92A03EB107E1F781D357
:1070E0000CC78ECFF89410926F001092810010920E
:1070F00085001092840081E085BF15BE47980C94EE
:10710000000008952091D4013091D5012F5F3F4FA9
:107110003093D5012093D401932F37FF03C08EEF16
:10712000831B982F990F921710F447980895479A48
:1071300008951F920F920FB60F9211242F938F93E1
:107140009F93EF93FF93109285001092840080919B
:10715000CA019091CB01009729F001979093CB0140
:107160008093CA018091CC019091CD01009729F0C4
:1071700001979093CD018093CC01E0E0F0E0859100
:1071800094918F5F9F4F49F08091CE019091CF01F4
:1071900001969093CF018093CE01FF91EF919F9143
:1071A0008F912F910F900FBE0F901F90189584E034
:1071B0008093E9000DC08091E8008B778093E80010
:1071C00003C08EB3882351F08091E80082FFF9CF8D
:1071D0008091E80085FFEFCF8091F1000895982F0E
:1071E00083E08093E9008091E80085FD0DC08091E7
:1071F000E8008E778093E80003C08EB3882361F0A7
:107200008091E80080FFF9CF9093F10084E690E050
:107210009093CB018093CA0108954F925F926F9231
:107220007F928F929F92AF92BF92CF92DF92EF9216
:10723000FF920F931F93CF93DF9384E08093E90035
:107240008091E80082FF56C284E690E09093CD01E1
:107250008093CC01ACDF182F853481F48CE195E26A
:107260009093CF018093CE0107B600FCFDCFF99932
:10727000FECF81E180935700E89503C0843519F46F
:1072800096DF8DE00DC28C34E1F38035D1F3843785
:1072900021F484E4A4DF80E003C2813611F489E59F
:1072A000FFC18134B1F483DF182F81DF90E0880FB4
:1072B000991FAA2797FDA095BA2F312F330F20E0F1
:1072C000442737FD4095542F822B932BA42BB52BAD
:1072D000B8C1803711F483E5E3C1833549F4C0E0D8
:1072E000D1E089917CDF21E0C730D207D1F7D9C145
:1072F000863521F481E373DF80E3D2C1833731F433
:1073000087E86DDF85E96BDF8EE1CAC18536B9F4A8
:10731000E0E0F0E093E085E090935700E89507B651
:1073200000FCFDCF80935700E89507B600FCFDCF29
:10733000E058FF4FA0E7E030FA0771F7A2CF82379D
:1073400039F4E1E0F0E089E0809357008491A8C12E
:10735000863439F4E0E0F0E089E0809357008491CE
:107360009FC18E3439F4E3E0F0E089E08093570068
:10737000849196C1813539F4E2E0F0E089E08093B0
:10738000570084918DC1823631F489E528DF80E091
:1073900026DF80E885C1823419F0873609F0E5C020
:1073A0001092CF011092CE0102DF082F00DFF82EDD
:1073B000FEDE682E8554823008F071C1902F80E087
:1073C000CF2DD0E0C82BD92B10926F00173609F0C3
:1073D0004BC081E180935700E895DD24CC24C39411
:1073E0003FC0E090D001F090D1010091D201109106
:1073F000D301B6E46B16D9F4ED2DF0E0EE29FF29A8
:10740000E4918E2FECDEDD2081F082E090E0A0E0C0
:10741000B0E0E80EF91E0A1F1B1FE092D001F092A7
:10742000D1010093D2011093D301DC2418C0D801FC
:10743000C701B695A7959795879549D5D0DE82E087
:1074400090E0A0E0B0E0E80EF91E0A1F1B1FE092DA
:10745000D001F092D1010093D2011093D301219772
:10746000209709F0BECF7DC08090D0019090D101CF
:10747000A090D201B090D30196E4691609F05DC0E6
:1074800083E0F40180935700E89507B600FCFDCF38
:1074900054C0F6E46F1661F5772031F1E090D00129
:1074A000F090D1010091D2011091D30180DED82E4D
:1074B000CC24852D90E08C299D29F7010C01409268
:1074C0005700E895112482E090E0A0E0B0E0E80EDB
:1074D000F91E0A1F1B1FE092D001F092D101009308
:1074E000D2011093D30102C062DE582E742423C04F
:1074F000E090D001F090D1010091D2011091D30120
:1075000016950795F794E79452DE682FC701E7D4E4
:107510008091D0019091D101A091D201B091D3017D
:107520000296A11DB11D8093D0019093D101A0932B
:10753000D201B093D301219704C055247724442469
:107540004394209709F0A5CF96E4691641F485E0AD
:10755000F40180935700E89507B600FCFDCF8DE05D
:107560003EDE82E080936F009CC0833471F4009112
:10757000D0011091D1011BDE90E021E0F8010C0157
:1075800020935700E89511247CCE833619F5E090BE
:10759000D001F090D1010091D2011091D30107DE0A
:1075A000F701E16090E021E00C0120935700E8959D
:1075B000112482E090E0A0E0B0E0E80EF91E0A1F7E
:1075C0001B1FE092D001F092D1010093D2011093E1
:1075D000D30157CE8D3661F4E091D001F091D10105
:1075E00085E080935700E89507B600FCFDCF49CEB3
:1075F000823551F4E091D001F091D10105911491BF
:10760000812FEDDD802F4CC0843421F5E090D00136
:10761000F090D1010091D2011091D30116950795F8
:10762000F794E794C4DD682FC70159D48091D00145
:107630009091D101A091D201B091D3010296A11DE8
:10764000B11D8093D0019093D101A093D201B0934A
:10765000D30117CE843609F5E090D001F090D10126
:107660000091D2011091D301D801C701B695A79519
:10767000979587952CD4B3DD82E090E0A0E0B0E050
:10768000E80EF91E0A1F1B1FE092D001F092D101F3
:107690000093D2011093D30104C08B3111F08FE31A
:1076A0009EDD83E08093E9009091E8008091E800FE
:1076B0008E778093E80095FF04C010C08EB38823B6
:1076C000C9F08091E80080FFF9CF8091E8008E77C3
:1076D0008093E80003C08EB3882361F08091E800B6
:1076E00080FFF9CF84E08093E9008091E8008B77F8
:1076F0008093E800DF91CF911F910F91FF90EF9061
:10770000DF90CF90BF90AF909F908F907F906F90C1
:107710005F904F9008959091D801892F8F77813293
:1077200049F58091D9018032A1F0813219F5913A61
:1077300009F58091E800877F8093E8008DE091E073
:1077400067E070E0FBD18091E8008B778093E800E0
:107750000895913279F48091E800877F8093E80062
:107760008DE091E067E070E04DD28091E8008E7787
:107770008093E800089582E061EC42E0A7D083E0C6
:1077800061E842E1A3D084E060E842E19FC084B7B1
:10779000877F84BF88E10FB6F894809360001092D1
:1077A00060000FBE20E880E090E00FB6F8942093D0
:1077B0006100809361000FBE81E085BF92E095BFBC
:1077C0003F9AE1E6F0E0208310824798109289000A
:1077D0008DE78093880090936F0083E08093810011
:1077E000E6C04091000850910108109201081092E3
:1077F000000824B714BE88E10FB6F89480936000A7
:10780000109260000FBEE0E0F0E0859194918F5FF0
:107810009F4F71F020FD0BC021FD0AC0283041F4BC
:107820008091090190910A014817590709F05ADC23
:10783000AEDF78941092CF011092CE010CC0EDDC37
:1078400034D38091CE019091CF018151974210F0B5
:107850001092140157DC80911401882381F78091E4
:10786000E00081608093E0003DDC80E090E00895DE
:10787000FA01923049F0933061F09130F9F485E1EA
:1078800091E022E130E01EC087E291E02EE330E09B
:1078900019C0882329F485E691E024E030E012C085
:1078A000813029F489E691E022E230E00BC0823099
:1078B00029F487E991E028E130E004C080E090E01D
:1078C00020E030E091838083C90108958093E9002E
:1078D0008091EB0081608093EB001092ED0060934B
:1078E000EC004093ED008091EE00881F8827881FF0
:1078F00008958091D80188238CF403C08EB3882327
:10790000B1F08091E80082FFF9CF8091E8008B7799
:107910008093E80008958EB3882349F08091E800B1
:1079200080FFF9CF8091E8008E778093E80008957A
:10793000EF92FF920F931F9345D04CD008ED10E0CB
:10794000F80180818F778083808180688083808147
:107950008F7D808319BC1EBA1092D60180EEE82E6E
:10796000F12CF70180818B7F8083F8018081816019
:10797000808380E060E042E0A9DFE1EEF0E080811A
:107980008E7F8083E2EEF0E0808181608083808161
:1079900088608083F70180818E7F8083F8018081F9
:1079A000806180831F910F91FF90EF900895E7ED24
:1079B000F0E08081816080838AE482BF81E08093EF
:1079C000D701B6CFE8EDF0E080818E7F8083109202
:1079D000E20008951092DA001092E10008951F92DB
:1079E0000F920FB60F9211242F933F934F935F93F3
:1079F0006F937F938F939F93AF93BF93EF93FF9377
:107A00008091DA0080FF1AC08091D80080FF16C0F4
:107A10008091DA008E7F8093DA008091D90080FF18
:107A20000AC019BC82E089BD09B400FEFDCF81E027
:107A30008EBB3AD203C019BC1EBA36D28091E10087
:107A400080FF17C08091E20080FF13C08091E200A8
:107A50008E7F8093E2008091E20080618093E2005B
:107A60008091D80080628093D80019BC85E08EBBDD
:107A70001BD28091E10084FF2BC08091E20084FF43
:107A800027C019BC82E089BD09B400FEFDCF8091FA
:107A9000D8008F7D8093D8008091E1008F7E809305
:107AA000E1008091E2008F7E8093E2008091E2000D
:107AB00081608093E2008091D601882331F4809127
:107AC000E30087FD02C081E001C084E08EBBECD101
:107AD0008091E10083FF21C08091E20083FF1DC0FF
:107AE0008091E100877F8093E10082E08EBB10925D
:107AF000D6018091E1008E7F8093E1008091E200C9
:107B00008E7F8093E2008091E20080618093E200AA
:107B100080E060E042E0DADEC7D1FF91EF91BF91F3
:107B2000AF919F918F917F916F915F914F913F9115
:107B30002F910F900FBE0F901F9018959C014091B0
:107B4000DE015091DF014617570718F4F90190E064
:107B500044C06115710511F0AB01F8CF8091E800C8
:107B60008E778093E80040E050E0F0CF8EB388231A
:107B700009F444C0853009F443C08091E80083FFD4
:107B800002C081E008958091E80082FD31C08091BB
:107B9000E80080FF22C08091F3009091F200782FDE
:107BA00060E0292F30E0262B372B07C0819180938E
:107BB000F100415050402F5F3F4F4115510519F0E2
:107BC0002830310598F390E02830310509F491E030
:107BD0008091E8008E778093E8004115510531F6D9
:107BE000992321F605C08EB3882341F0853041F0FA
:107BF0008091E80082FFF7CF80E0089582E0089549
:107C000083E008959C016115710529F48091E800D5
:107C10008B778093E800F90126C08EB3882391F119
:107C2000853091F18091E80083FF02C081E00895E2
:107C30008091E80082FFF1CF06C08091F10081932E
:107C40006150704059F02091F3008091F200322F82
:107C500020E090E0822B932B892B79F78091E8002C
:107C60008B778093E80061157105B9F605C08EB376
:107C7000882341F0853041F08091E80080FFF7CF04
:107C800080E0089582E0089583E008950F931F93A4
:107C9000DF93CF9300D0CDB7DEB7E8EDF1E0809170
:107CA000F100819381E0E03EF807C9F734DD80916F
:107CB000E80083FFE4C08091D8019091D90195300C
:107CC00009F46DC0963040F4913081F1913070F03C
:107CD000933009F0D4C02AC0983009F4A3C0993079
:107CE00009F4B2C0963009F0CAC07CC0803809F4EB
:107CF000C6C0823809F0C3C08091DC0187708093D0
:107D0000E9008091EB001092E9002091E800277FC4
:107D10002093E80090E025E0969587952A95E1F775
:107D200081708093F1001092F10087C0882319F0D0
:107D3000823009F0A4C08F71823009F0A0C0809118
:107D4000DA01882331F52091DC01277009F497C00E
:107D50002093E9008091EB0080FF1BC0933021F459
:107D60008091EB00806213C08091EB008061809372
:107D7000EB0081E090E002C0880F991F2A95E2F79E
:107D80008093EA001092EA008091EB008860809373
:107D9000EB001092E9008091E800877F51C08823B2
:107DA00009F06DC01091DA011F770FB7F894809138
:107DB000E800877F8093E8009CDD8091E80080FFE9
:107DC000FCCF8091E3008078812B8093E300806872
:107DD0008093E300112311F482E001C083E08EBBA5
:107DE0000FBF4DC08058823008F049C08091DA0141
:107DF0009091DB016091DC01AE014F5F5F4F38DD98
:107E0000BC01009709F43BC08091E800877F809314
:107E1000E80089819A8192DE8091E8008B778093D7
:107E2000E8002DC0803859F58091E800877F809365
:107E3000E8008091D6018093F1008091E8008E7770
:107E40008093E80056DD1BC08823C9F49091DA01C5
:107E50009230A8F48091E800877F8093E8009093A7
:107E6000D60147DD8091D601882331F48091E3006B
:107E700087FD02C081E001C084E08EBB7CDC809184
:107E8000E80083FF0AC08091EB0080628093EB00E2
:107E90008091E800877F8093E8000F900F90CF914A
:107EA000DF911F910F91089508951F938EB388233A
:107EB00061F01091E9001092E9008091E80083FFE1
:107EC00001C0E4DE17701093E9001F910895F9993D
:107ED000FECF92BD81BDF89A992780B50895262FCF
:107EE000F999FECF1FBA92BD81BD20BD0FB6F8949F
:107EF000FA9AF99A0FBE01960895F894FFCF43417C
:107F0000544552494E4100777700080000000000B8
:107F100000080112011001020000089A230C000160
:107F2000000201000109023E000201008032090442
:107F300000000102020100052400100104240204D3
:107F40000524060001070582030800FF090401005B
:107F5000020A000000070504021000010705830261
:107F6000100001040309042203410064006100665B
:107F70000072007500690074002000460065006111
:107F80000074006800650072002000330032007544
:107F900000340000001803410064006100660072B4
:107FA00000750069007400200049006E00640075CF
:107FB0000073007400720069006500730020004CBB
:087FC000004C0043000000002A
:00000001FF
