:100000000C9462020C94C8080C94A1080C947A0811
:100010000C9453080C948A020C948A020C942C08B9
:100020000C948A020C948A020C94EF080C945809E0
:100030000C948A020C948A020C948A020C948A0210
:100040000C948A020C948A020C948A020C948A0200
:100050000C948A020C948A020C948A020C94E20793
:100060000C948A020C948A020C948A020C948A02E0
:100070000C948A020C948A020C948A020C948A02D0
:100080000C948A020C948A020C948A020C948A02C0
:100090000C948A020C948A020C948A020C948A02B0
:1000A0000C948A020C948A020C948A02080B0002B7
:1000B0000202000009040000010202000005240001
:1000C0001001052401010104240206052406000193
:1000D0000705810310004009040100020A00000026
:1000E00007050202400000070583024000000403E8
:1000F000090412010002EF0201409A230C80000162
:1001000001020301416461667275697400466561AC
:10011000746865722033327534007B226572726FA9
:1001200072223A22526164696F20496E69742046D6
:1001300061696C6564227D002C226972715F636F56
:10014000756E74223A002C226665695F6F6B223AE5
:10015000002C22727373695F6F6B223A002C226548
:1001600063635F6465636C696E6564223A002C2288
:100170006563635F6669786564223A002C22656373
:1001800063223A002C22676174655F706172697442
:1001900079223A002C22676174655F6666223A0014
:1001A0002C22676174655F6D7362223A002C2267AE
:1001B0006174655F7A65726F223A002C2267617400
:1001C000655F73686F7274223A002C2267617465F0
:1001D0005F70617373223A002C22676174655F64FB
:1001E000726F70706564223A002C2269645F6761E7
:1001F0007465223A002C22736E725F64726F7070A5
:100200006564223A002C22656D6974746564223A33
:10021000002C22736E725F6D696E223A002C22737D
:10022000796E635F746F6C223A00222C2273796EB0
:10023000635F73697A65223A00222C2273796E63B8
:1002400032223A22002C2273796E6331223A220044
:10025000222C227061796C6F61645F6C656E223A4A
:1002600000222C2272786277223A22002C227273AA
:1002700073695F746872657368223A2200222C22C7
:10028000727373695F726177223A00222C2269725D
:1002900071666C61677332223A2200222C226972E5
:1002A00071666C61677331223A22002C226F706D87
:1002B0006F6465223A22007B226B6579223A2273B1
:1002C0007461747573222C22726573223A7472758C
:1002D000652C22726164696F5F6F6B223A00227D28
:1002E00000222C2276616C223A22007B226B6579F7
:1002F000223A2272656772656164222C22726573EC
:10030000223A747275652C22726567223A220022A5
:100310007D007B226E616D65223A2253656E736F9C
:100320007253746174696F6E526164696F222C221A
:100330006669726D77617265223A2200227D7D00C6
:100340007D2C2264617461223A7B226964223A2204
:10035000002C22656363223A31002C2267617465A8
:10036000223A002C226372636F6B223A002C2263C4
:100370007263223A002C226973725F7573223A000D
:100380002C226C6E61223A002C226665695F687AC5
:10039000223A002C226665695F726177223A002C4E
:1003A00022736E72223A002C226E6F697365223AB4
:1003B000006C6174650073796E63002C2272737334
:1003C000695F737263223A22007B226B6579223A5D
:1003D0002274657272615F756866222C226D657485
:1003E00061223A7B22646174615F74797065223A9C
:1003F0002274657272615F756866222C2272737353
:1004000069223A007B226572726F72223A2252612F
:1004100064696F20496E6974204661696C65642265
:100420007D0000000000240027002A002D0030007D
:1004300000000000250028002B002E0031000404DD
:10044000040404030405020202020403020202027D
:100450000606060606060404020202040404080254
:10046000011040804010204080408008020401803C
:1004700040201002011080102040402000000002A7
:1004800000090F0000030401000C00000000000040
:1004900000000000000000000000002C22657272C5
:1004A000223A220066616C736500747275650022E1
:1004B0002C22726573223A007B226B6579223A22E4
:1004C0000000E61311241FBECFEFDAE0DEBFCDBF80
:1004D00023E0AAE7B2E001C01D92A836B207E1F717
:1004E00012E0A0E0B1E0E4E3F1E302C005900D9278
:1004F000AA37B107D9F712E0C2E6D2E004C02197CB
:10050000FE010E94B515C136D107C9F70E949A0BAA
:100510000C9498180C940000FC019C012C5F3F4F38
:1005200080E047E09191892798E087FF08C0880F15
:1005300084279150D1F7E217F307A1F70895880FA8
:10054000F8CF8CBD9DBD08959091E502911103C037
:100550008FEF9FEF08954FB7F89492E09093E900E2
:100560009091F200292F30E01216130614F421E0C6
:1005700030E0232B29F084E68093E4028091F1009F
:10058000992339F02091F200211103C02BE620932A
:10059000E8004FBF9923E1F290E008952FB7F89457
:1005A00083E08093E9009091E800892F807295FFA5
:1005B00004C09091F20080E4891B2FBF08958091C0
:1005C000DC0281110DC082E08093D80284E0809328
:1005D000D9021092DB021092DA0281E08093DC02F1
:1005E00088ED92E00895282F30E0F901E458FB4FA0
:1005F0009491F901E35AFB4F8491225C3B4FF9013E
:100600002491222309F430C09923E9F091509F30BE
:10061000D0F4E92FF0E0E15FFC4F0C94B5153D03F9
:1006200041031E0335033903230323032303440338
:100630004A034E035203580323035C039091800046
:100640009F7790938000E22FF0E0EE0FFF1FE05DB8
:10065000FB4FA591B4919FB7F894EC91611132C012
:1006600080958E238C939FBF0895909180009F7DED
:10067000E8CF90918000977FE4CF94B59F7794BDA9
:10068000E2CF94B59F7DFBCF909190009F779093A0
:100690009000D9CF909190009F7DF9CF90919000DC
:1006A000977FF5CF9091C0009F779093C000CBCFFC
:1006B0009091C0009F7DF9CF9091C200977F909359
:1006C000C200C1CF8E2BCECFCF93DF9390E0FC0141
:1006D000E35AFB4F2491825C9B4FFC018491882359
:1006E000D1F090E0880F991FFC01EE5DFB4FA591C2
:1006F000B491FC01E05DFB4FC591D49161110EC036
:100700009FB7F8948C91E22FE0958E238C932881EB
:10071000E223E8839FBFDF91CF9108958FB7F894CC
:10072000EC91E22BEC938FBFF6CF3FB7F89480911A
:10073000D4029091D502A091D602B091D70226B5ED
:10074000A89B05C02F3F19F00196A11DB11D3FBF09
:10075000BA2FA92F982F8827BC01CD01620F711DD8
:10076000811D911D43E0660F771F881F991F4A95D1
:10077000D1F708958F929F92AF92BF92CF92DF925E
:10078000EF92FF924B015C010E9495036B017C018B
:100790000E9495036C197D098E099F09683E73407C
:1007A00081059105A8F321E0821A9108A108B108FA
:1007B00088EEC80E83E0D81EE11CF11C8114910460
:1007C000A104B10429F7FF90EF90DF90CF90BF9084
:1007D000AF909F908F9008952FB7F8946091D002BA
:1007E0007091D1028091D2029091D3022FBF0895CF
:1007F0000E9495036093C8027093C9028093CA0255
:100800009093CB0281E08093CC02809183029091FF
:100810008402A0918502B09186020196A11DB11DAE
:100820008093830290938402A0938502B093860202
:100830000895089540917C0250917D0220917A02A2
:1008400030917B0242175307B4F49091E800957001
:10085000E1F39091E80092FD19C08093F10080913E
:100860007C0290917D0201968F739927892B19F450
:100870008EEF8093E80080917C0290917D0201963A
:1008800090937D0280937C0281E0089580E008953A
:10089000EF92FF920F931F93CF93DF93F82E192FB0
:1008A000E62E042F81E0860F880F0E941A0483E051
:1008B0000E941A04CF2DD12FEC0EFD2EF11CCE1567
:1008C000DF05B9F007FF13C0FE0184910E941A04EE
:1008D000182F80E00E941A04812321968111EFCF06
:1008E000DF91CF911F910F91FF90EF900895888134
:1008F000EDCF81E0F5CFDF92EF92FF920F931F9340
:10090000CF93DF93D82E8A01EB017B01E40EF51E15
:10091000CE15DF0559F0D7FE12C0FE0184910E946A
:100920001A0421968111F4CF0FEF1FEFC801DF9158
:10093000CF911F910F91FF90EF90DF9008958881E4
:10094000EECF0F931F93CF93DF931F92CDB7DEB7F8
:1009500082E0898342E450E06CEA70E080E80E9423
:100960007B040E94DF02DC0112960D911C9101159F
:10097000110589F0D801ED91FC910280F381E02D01
:10098000BE016F5F7F4FC801099597FD04C0F80154
:1009900000851185ECCF89810F90DF91CF911F9158
:1009A0000F9108958F929F92AF92BF92CF92DF9254
:1009B000EF92FF920F931F93CF93DF936C017B0114
:1009C0008A0180910B01882309F45BC08091E502C4
:1009D000882309F456C08091800280FF05C0809171
:1009E000E00082608093E000E801B12C8AEFA82E3D
:1009F00093E0892E2AE3922E209711F4BB20D9F19F
:100A00000E94CE0281110AC0AA94AA20D1F161E00D
:100A100070E080E090E00E94BA03EECF8C171D06D4
:100A200011F00CF08C2F9FB7F8948092E900209180
:100A3000E80025FD02C09FBFDFCF282F30E0C21B9A
:100A4000D30BF701815020F041914093F100FACF90
:100A5000E20EF31EBB2021F09092E800B12CEBCF08
:100A60008091E80085FDE7CF9092E800BB24B39425
:100A7000209709F3F3CF84E680937F0210161106C6
:100A80003CF081E090E0F6019383828310E000E087
:100A9000C801DF91CF911F910F91FF90EF90DF90F0
:100AA000CF90BF90AF909F908F900895CF93DF939A
:100AB0001F92CDB7DEB76983DC01ED91FC91028016
:100AC000F381E02D41E050E0BE016F5F7F4F09955B
:100AD0000F90DF91CF910895682F86E193E00C94F9
:100AE00056050F931F93CF93DF938C01D0E0C0E0A6
:100AF000F801EC0FFD1F6491662341F086E193E05D
:100B00000E945605892B11F02196F2CFCE01DF917C
:100B1000CF911F910F91089583E08093E900809118
:100B2000F200882319F08AE38093E80008950E9478
:100B3000CE0290E00895FC018485958597FD05C05F
:100B40002FEF3FEF3587248708950C94A402CF93AD
:100B5000DF93EC018C859D8597FF04C00E94A40261
:100B60009D878C878C859D85DF91CF910895FC01B1
:100B70008485958597FD0BC09FB7F89482E080939C
:100B8000E9008091F2009FBF90E0019608959FB721
:100B9000F89482E08093E9008091F2009FBF90E09A
:100BA00008950F931F93CF93DF93482F50E0EA01EE
:100BB000D595C7959A013595279535952795DA01ED
:100BC00073E0B595A7957A95E1F79A2F9227982724
:100BD0008A01E5E015950795EA95E1F79027692FD9
:100BE000617070E0660F771F9C2F9A2789278A0112
:100BF000B6E015950795BA95E1F78027E82FE170E3
:100C0000F0E0EE0FFF1FEE0FFF1F6E2B2C272A27A1
:100C100014E0559547951A95E1F724272170862F02
:100C2000822BDF91CF911F910F91089508958EBD72
:100C300000000DB407FEFDCF8EB50895CF93C82FE9
:100C400080E591E00E94A10260E088E00E94F3024A
:100C50008C2F8F770E94170680E00E941706C82FFE
:100C600061E088E00E94F3028C2FCF910895CF932A
:100C7000DF93D82FC62F80E591E00E94A10260E0AB
:100C800088E00E94F3028D2F80680E9417068C2F47
:100C90000E94170661E088E0DF91CF910C94F30287
:100CA00060911C01662319F082E00E943706609172
:100CB0001A016B3E19F089E10E94370660911B0111
:100CC000653019F088E30E94370660911D0168388D
:100CD00019F08EE20E94370660911E016195660F41
:100CE000643E19F089E20C943706089560E38FE6BC
:100CF0000E94370660E082E00E94370665E083E0EC
:100D00000E94370660E084E00E94370661E085E0DB
:100D10000E94370669E986E00E9437066CE687E0A4
:100D20000E94370660E888E00E94370660E089E0AC
:100D30000E9437066BEE89E10E9437066BEE8AE16E
:100D40000E94370660E087E30E94370660E08DE38B
:100D50000E94370665E088E30E94370660E08CE277
:100D60000E94370662E08DE20E94370668E88EE254
:100D70000E94370663ED8FE20E94370661E980E347
:100D80000E9437066FE581E10E9437066FE88CE329
:100D90000E94370662E485E20E94370664EE89E22B
:100DA0000C943706CF92DF92EF92FF92F82E81E0FB
:100DB0000E941E06837E682F6F2981E00E943706FD
:100DC0000E94EC036B017C0128EEC20E23E0D21ED0
:100DD000E11CF11C87E20E941E0687FD07C00E94ED
:100DE000EC036C157D058E059F05A0F3FF90EF9039
:100DF000DF90CF900895FC0101900020E9F7319732
:100E0000AF01481B590BBC0186E193E00C94D2045E
:100E10008F929F92AF92BF920F931F93CF93DF93C6
:100E2000CDB7DEB7A1970FB6F894DEBF0FBECDBF2A
:100E300019A2423008F44AE08E010F5D1F4F842E44
:100E4000912CB12CA12CA50194010E942E15E62F06
:100E5000B901CA01EA30F4F4E05DD801EE938D01E6
:100E6000232B242B252B79F790E080E0109719F0A5
:100E7000CD010E94FB06A1960FB6F894DEBF0FBE0F
:100E8000CDBFDF91CF911F910F91BF90AF909F90F9
:100E90008F900895E95CE1CF0C940807AB01682FAF
:100EA00070E090E080E00C944C071F93CF93DF93A9
:100EB000182FEB0188EB94E00E94710586EE92E01A
:100EC0000E94FB068FEA94E00E94710584EA94E098
:100ED000112311F08AEA94E00E94710511110CC0EF
:100EE000209751F08BE994E00E947105CE010E9499
:100EF000FB0682E20E946C058DE70E946C058FE480
:100F000091E0DF91CF911F910C94FB06CF93DF937B
:100F10000E947105EC018FE491E00E94FB068C0FAA
:100F20009D1FDF91CF910895CF92DF92EF92FF92B4
:100F3000CF93DF936C01990FEE08FF08F7FE17C0FF
:100F40008DE20E946C05EC0166277727CB016C19B6
:100F50007D098E099F094AE00E9408078C0F9D1F9A
:100F6000DF91CF91FF90EF90DF90CF9008954AE00E
:100F7000C701B601DF91CF91FF90EF90DF90CF9046
:100F80000C940807CF93DF9325E0AC01249FC001A8
:100F9000259F900D11246AE070E00E94A115D82FC2
:100FA000C92FCB010E9494078EE20E946C058D2F01
:100FB0009C2F97FF03C0919581959109DF91CF9167
:100FC0000C9494071F920F920FB60F9211242F9337
:100FD0003F938F939F93AF93BF938091D002909153
:100FE000D102A091D202B091D3023091CF0226E07B
:100FF000230F2D3758F50296A11DB11D2093CF0266
:101000008093D0029093D102A093D202B093D302E6
:101010008091D4029091D502A091D602B091D702CE
:101020000196A11DB11D8093D4029093D502A09387
:10103000D602B093D702BF91AF919F918F913F910C
:101040002F910F900FBE0F901F90189529E8230F36
:101050000396A11DB11DD2CF1F920F920FB60F9212
:1010600011242F933F934F935F936F937F938F93AD
:101070009F93AF93BF93EF93FF93E0911401F0918F
:1010800015010995FF91EF91BF91AF919F918F91BC
:101090007F916F915F914F913F912F910F900FBE74
:1010A0000F901F9018951F920F920FB60F92112458
:1010B0002F933F934F935F936F937F938F939F9360
:1010C000AF93BF93EF93FF93E0911201F09113015F
:1010D0000995FF91EF91BF91AF919F918F917F9172
:1010E0006F915F914F913F912F910F900FBE0F9095
:1010F0001F9018951F920F920FB60F9211242F93E5
:101100003F934F935F936F937F938F939F93AF938F
:10111000BF93EF93FF93E0911001F09111010995B6
:10112000FF91EF91BF91AF919F918F917F916F91BF
:101130005F914F913F912F910F900FBE0F901F9095
:1011400018951F920F920FB60F9211242F933F9371
:101150004F935F936F937F938F939F93AF93BF93BF
:10116000EF93FF93E0910E01F0910F010995FF912C
:10117000EF91BF91AF919F918F917F916F915F910F
:101180004F913F912F910F900FBE0F901F90189588
:101190001F920F920FB60F9211242F933F934F93EC
:1011A0005F936F937F938F939F93AF93BF93EF93CF
:1011B000FF93E0910C01F0910D010995FF91EF91E2
:1011C000BF91AF919F918F917F916F915F914F915F
:1011D0003F912F910F900FBE0F901F9018951F9267
:1011E0000F920FB60F9211248F939F938091E1007D
:1011F0009091E100937F9093E10083FF0FC01092E4
:10120000E90091E09093EB001092EC0092E3909350
:10121000ED001092E50298E09093F00082FF1CC070
:1012200093E09093E9009091F200992319F09AE3EA
:101230009093E80090917F02992329F090917F028A
:10124000915090937F029091E402992329F090911C
:10125000E40291509093E40284FF18C08091E20070
:101260008E7E81608093E2008091E1008F7E80938A
:10127000E100809180028E7E8061809380029F9148
:101280008F910F900FBE0F901F90189580FFF7CF92
:101290008091E2008E7E80618093E2008091E10087
:1012A0008E7E8093E100809180028E7E8160E5CF0A
:1012B0001F920F920FB60F921124CF92DF92EF92EE
:1012C000FF920F931F932F933F934F935F936F93CF
:1012D0007F938F939F93AF93BF93EF93FF93CF939E
:1012E000DF93CDB7DEB76C97DEBFCDBF1092E900BC
:1012F0008091E80083FF2FC089E0FE017596EE2EF5
:10130000DF2E815029F09091F10090833196F9CF32
:1013100084E68093E40282EF8093E8008D8987FF62
:1013200039C09091E80090FFFCCF982F907609F09B
:1013300033C19E894F89588D2F89F88C911131C006
:10134000803861F5809181028093F1001092F10064
:101350008EEF8093E8006C960FB6F894DEBF0FBE58
:10136000CDBFDF91CF91FF91EF91BF91AF919F9151
:101370008F917F916F915F914F913F912F911F912D
:101380000F91FF90EF90DF90CF900F900FBE0F90D6
:101390001F9018959EEF9093E800C7CF1092F10030
:1013A000D5CF913059F48111D3CF4130510581F619
:1013B000809181028D7F80938102CACF933049F45E
:1013C0008111C6CF4130510519F6809181028260AA
:1013D000F2CF953041F48091E80080FFFCCF206887
:1013E0002093E300B5CF963009F0A8C00B8D1C8D7B
:1013F00022E01092E90010927D0210927C02F2121B
:101400002EC010927B0210927A020E94A1041F82C9
:1014100099E09983FA8291E09E8390EA98879AEF07
:10142000998720917C0230917D02275F3F4F3C835A
:101430002B838D831092E90010927D0210927C0222
:1014400010937B0200937A0249E050E0BE016F5F87
:101450007F4F80E00E947B040E94A10479CF10930B
:101460007B0200937A020E94DF02DC0112960D914A
:101470001C910115110509F457C1D801ED91FC919A
:101480000480F581E02D6E2D7D2DC8010995009712
:1014900009F045C1F80100851185EBCFF3E0FF129B
:1014A0000EC08F89882309F440C0823061F440E87F
:1014B0006CE08DE091E00E944804811149CF81E207
:1014C0008093EB0048CF813029F440E868E084E065
:1014D00091E0F1CF833099F70E94DF02DC01129690
:1014E000ED90FC908E010F5F1F4F6801E114F10435
:1014F00079F0D701ED91FC910680F781E02DB801DC
:10150000C7010995080F111DF701E084F184EECFA2
:10151000D8011C92F60101900020E9F73197BF0134
:101520006C197D0940E0C601C6CF6EEE70E0FB018C
:10153000449150E080E80E947B040ACF973009F480
:10154000BECF983021F481E08093F10001CF993033
:1015500009F0FECE837009F0B2CFE5E3F1E081E05F
:1015600031E096E32191222371F08093E9003093DA
:10157000EB00DF0111972C912093EC009093ED008C
:101580008F5F873079F78EE78093EA001092EA0048
:101590008F898093E502DCCE8B8D9C8D1092E900C3
:1015A00010927D0210927C0290937B0280937A02CB
:1015B000898D81119AC08E899D89913A49F4813231
:1015C00009F07DCF47E050E064E071E080E0B3CF08
:1015D000913209F074CF833269F48F89988DB0E02D
:1015E000A0E08093000190930101A0930201B093C9
:1015F0000301AECE8032A9F48091E80082FFFCCFD7
:1016000088E0E4E0F1E0815029F09091F1009083CE
:101610003196F9CF84E68093E4028BEF8093E80063
:1016200097CE823209F094CE8F8980930B01EEEF32
:10163000FFE7859194918B3F9C4D51F1E0E0F8E0FC
:101640008091040190910501A0910601B0910701DC
:10165000803B9440A105B105F1F480910B0180FD20
:101660001AC0EE3F8AE0F80789F587E797E791838C
:1016700080838091600080937E0288E19BE00FB6BA
:10168000F894A895809360000FBE9093600060CEA0
:10169000EEEFFAE0D5CF808191818737974709F047
:1016A00057CEA895809160008861809360008091FA
:1016B0007E0280936000EE3F2AE0F20789F080917D
:1016C000FE0A9091FF0A9183808342CE80819181AE
:1016D0008737980751F29093FF0A8093FE0AC5CF8F
:1016E0001092FF0A1092FE0A33CE0E94DF02DC0144
:1016F00012960D911C910115110509F4E0CED80147
:10170000ED91FC910190F081E02D6E2D7D2DC801B1
:10171000099581111DCEF80100851185ECCF1816B1
:1017200019060CF415CECBCEF1E0FF12B7CE62EF66
:1017300070E0FDCECF93DF93CDB7DEB76F970FB6D6
:10174000F894DEBF0FBECDBF789484B5826084BDAF
:1017500084B5816084BD85B5826085BD85B58160B5
:1017600085BD80916E00816080936E001092810033
:1017700080918100826080938100809181008160EE
:1017800080938100809180008160809380008091AF
:10179000910082608093910080919100816080939C
:1017A0009100809190008160809390008091C100B1
:1017B00084608093C1008091C10082608093C100E9
:1017C0008091C10081608093C1008091C3008160DD
:1017D0008093C3008091C00082608093C00080919C
:1017E000C20081608093C20080917A0084608093FF
:1017F0007A0080917A00826080937A0080917A00EA
:101800008E7F80937A0080917A00806880937A003E
:101810001092E50210928102109280028091D7000E
:1018200081608093D70080EA8093D80089B58F7E4D
:1018300089BD89B5826089BD09B400FEFDCF61E034
:1018400070E080E090E00E94BA038091D8008F7C25
:1018500080618093D8008091E000807F8093E000D9
:101860008091E1008E7E8093E1008DE08093E20024
:101870008FEF9FEF909323038093220361E088E032
:101880000E94640361E088E00E94F30260E087E068
:101890000E9464031FB7F89480918202811127C0CF
:1018A000EFE4F4E08491EEE6F4E09491E82FF0E0C8
:1018B000EE0FFF1FEE5DFB4FA591B491EC91E92374
:1018C00021F461E081E10E94F30261E081E10E9484
:1018D00064038CB580618CBD8CB580648CBD61E087
:1018E0008FE00E94640361E080E10E9464038091C4
:1018F00082028F5F809382021FBF61E084E00E94BA
:10190000640361E084E00E94F3026AE070E080E03A
:1019100090E00E94BA0360E084E00E94F3026AE073
:1019200070E080E090E00E94BA0384E00E94D2065A
:101930000E9476060E9450068FE20E941E06833D9A
:1019400009F449C21092CE028AE191E00E94860712
:1019500088EF93E0909315018093140180916A00C1
:10196000806380936A00EE9A80E10E94D2061E0195
:1019700021E1220E311CCE0145969F8B8E8BFE01FC
:1019800031966F019E012B5F3F4F398F288F8091D9
:10199000CE02882309F45EC01091C702112321F002
:1019A00080919502811156C087E20E941E0680FF39
:1019B00051C0111121C084E20E941E0690E0919551
:1019C000819591099093C6028093C50281E080932E
:1019D000C70280918B0290918C02A0918D02B091F0
:1019E0008E020196A11DB11D80938B0290938C02F3
:1019F000A0938D02B0938E028091950281112AC02E
:101A000060E28EE10E9437068CE891E00197F1F7E1
:101A100081E20E941E06182F82E20E941E06912F6C
:101A20009093900280938F0281E080939502809141
:101A3000870290918802A0918902B0918A02019652
:101A4000A11DB11D8093870290938802A093890203
:101A5000B0938A0286E193E00E94B705892B09F4CE
:101A600092C386E193E00E949B058D3099F3E0914B
:101A7000CD028A3009F07BC3AE2FB0E0AA51BD4F32
:101A80001C92EE2309F4A4C16AE370E086EE92E0B2
:101A90000E94D6158C01009719F0FC0111928F015C
:101AA00062E571E086EE92E00E94E115892B09F073
:101AB0009CC18EE20E941E06182F87EB92E00E94C6
:101AC00071058091CE0290E00E9494078BEA92E02B
:101AD0000E94710581E00E941E0660E170E00E9494
:101AE0004E078BE992E00E94710587E20E941E0674
:101AF00060E170E00E944E078BE892E00E94710561
:101B000088E20E941E0660E170E00E944E078DE7A9
:101B100092E00E94710584E20E941E066AE070E075
:101B20000E944E078CE692E00E94710589E20E94B5
:101B30001E0660E170E00E944E0781E692E00E947E
:101B4000710589E10E941E0660E170E00E944E0767
:101B500080E592E00E94710588E30E941E066AE01B
:101B600070E00E944E0785E492E00E9471058FE2CA
:101B70000E941E0660E170E00E944E0789E392E039
:101B80000E94710580E30E941E0660E170E00E94E1
:101B90004E078AE292E00E947105812F90E073E087
:101BA000959587957A95E1F78770992701960E9418
:101BB00094078DE192E00E9471051770812F90E0EB
:101BC0000E94940781E192E00E94710580911F01BB
:101BD000082E000C990B0E94940785E092E00E9469
:101BE0007105609196027091970280919802909190
:101BF00099024AE050E00E944C0785EF91E00E9474
:101C0000710560919A0270919B0280919C02909163
:101C10009D024AE050E00E944C0789EE91E00E944C
:101C200071056AE070E0809120010E944E0788ED06
:101C300091E00E9471056091A1027091A2028091D1
:101C4000A3029091A4024AE050E00E944C078AEC63
:101C500091E00E9471056091A5027091A6028091A9
:101C6000A7029091A8024AE050E00E944C078BEB3B
:101C700091E00E9471056091A9027091AA02809181
:101C8000AB029091AC024AE050E00E944C078DEA12
:101C900091E00E9471056091AD027091AE02809159
:101CA000AF029091B0024AE050E00E944C0780EAF7
:101CB00091E00E9471056091B1027091B202809131
:101CC000B3029091B4024AE050E00E944C0784E9CC
:101CD00091E00E9471056091B5027091B602809109
:101CE000B7029091B8024AE050E00E944C0784E8A5
:101CF00091E00E9471056091B9027091BA028091E1
:101D0000BB029091BC024AE050E00E944C078CE775
:101D100091E00E9471056AE070E0809121010E94CB
:101D20004E078EE691E00E9471056091C1027091AC
:101D3000C2028091C3029091C4024AE050E00E9426
:101D40004C078DE591E00E9471056091BD02709194
:101D5000BE028091BF029091C0024AE050E00E9412
:101D60004C0781E591E00E94710560918B027091B2
:101D70008C0280918D0290918E024AE050E00E9488
:101D80004C0786E491E00E94710560918702709192
:101D900088028091890290918A024AE050E00E9474
:101DA0004C0788E391E00E94710560918302709175
:101DB000840280918502909186024AE050E00E9460
:101DC0004C078DE70E946C058FE491E00E94FB06B2
:101DD0001092CD023FCE81E00E941E068F3F09F493
:101DE000B1CD81E08093CE02B3CD69E571E086EE9E
:101DF00092E00E94E115892B69F482E193E00E9450
:101E000071058BE391E00E94FB068FE093E00E9456
:101E10008607DECF0115110521F0F80180818111BF
:101E200004C061E671E080E01EC06CE771E086EE00
:101E300092E00E94E115892BC9F469E671E0C801BE
:101E40000E94E11560E771E0892B69F784E00E9448
:101E5000D2060E9476060E94500680E10E94D206B9
:101E600070E060E081E00E945507B2CF63E871E066
:101E700086EE92E00E94E115892B69F450E040E083
:101E800070E060E0C8010E94FB1360931A0189E1D1
:101E90000E943706E5CF68E871E086EE92E00E9486
:101EA000E115892BC9F44AE050E070E060E0C80118
:101EB0000E94FB138B019C0101501109210931097A
:101EC000003411052105310518F060E971E0ABCF50
:101ED00060931B0188E3DCCF66E971E086EE92E057
:101EE0000E94E115892BC9F461EA71E0C8010E94E2
:101EF000E115892B31F410921C0160911C0182E0E4
:101F0000C7CF65EA71E0C8010E94E115892B09F08D
:101F100088CFF8E0F0931C01F0CF69EA71E086EE1B
:101F200092E00E94E115892BC9F44AE050E070E08C
:101F300060E0C8010E94FB138B019C0101581F4FF8
:101F40002F4F3F4F0C3611052105310508F0BDCF4D
:101F500060931E016195660F89E29ACF65EB71E08F
:101F600086EE92E00E94E115892B91F44AE050E060
:101F700070E060E0C8010E94FB13633071058105C9
:101F8000910518F069EB71E04ECF6093210168CFA5
:101F900064ED71E086EE92E00E94E115892B91F4E8
:101FA0004AE050E070E060E0C8010E94FB1362303C
:101FB00071058105910518F06CED71E034CF6093E7
:101FC00020014ECF63EE71E086EE92E00E94E115B3
:101FD000892B91F44AE050E070E060E0C8010E9473
:101FE000FB13693271058105910518F06BEE71E004
:101FF0001ACF60931F0134CF66EF71E086EE92E056
:102000000E94E115892B31F54AE050E070E060E074
:10201000C8010E94FB138B019C0101501109210989
:102020003109083011052105310518F060E072E032
:10203000FACE20911D01277CAB014150510963E08C
:10204000440F551F6A95E1F7622F642B60931D01C1
:102050008EE21ECF6AE072E086EE92E00E94E11509
:10206000892BA1F44AE050E070E060E0C8010E94D2
:10207000FB13683071058105910518F063E172E08A
:10208000D2CE20911D01287F622BE0CF6DE172E05E
:1020900086EE92E00E94E115892B99F56AE370E0E3
:1020A000C8010E94D61566E272E0009709F4BBCE23
:1020B000FC0111927F014AE050E070E060E0C8014D
:1020C0000E94FB134B015C0140E150E070E060E0D6
:1020D000C7010E94FB1395018401015011092109D8
:1020E0003109043011052105310508F0EECE6F3FAE
:1020F00071058105910511F008F0E7CE8EE2880D9B
:10210000C7CE63E372E086EE92E00E94E115892B70
:1021100059F540E150E070E060E0C8010E94FB1317
:10212000162F8BEE92E00E947105103118F480E3B7
:102130000E946C0560E170E0812F0E944E0781EEE5
:1021400092E00E947105812F0E941E06182F803197
:1021500018F480E30E946C0560E170E0812F0E941A
:102160004E078EED92E053CE6BE372E05CCEEF3221
:1021700008F070CC91E09E0F9093CD02F0E0EA5110
:10218000FD4F808367CCF091CE02FA8FFF2309F4D4
:1021900014C288E20E941E068F3F09F40AC2909181
:1021A000CC02911102C082FF04C2F8948091CC024B
:1021B000882309F444C08090C8029090C902A0907E
:1021C000CA02B090CB021092CC02789485E0F10163
:1021D00011928A95E9F7F0911B01FB8FF53010F011
:1021E00025E02B8F8091C70281110BC084E20E94F1
:1021F0001E0690E09195819591099093C602809377
:10220000C50288E10E941E068F8F80E591E00E9442
:10221000A10260E088E00E94F30280E00E941706BD
:102220003D8E2C8E8101802F82193B8D831760F4A7
:1022300080E00E941706F80181938F01F4CF0E947D
:1022400095034B015C01BFCF61E088E00E94F3027F
:102250000E9495032B013C01481859086A087B0825
:10226000FB8DF12C11E000E0F53009F08EC0C101CA
:102270000E948C02BD8801E08B1100E0710110E02A
:10228000812C912CA12CF70181917F018111FCC13E
:10229000A3940E94D105180F2E893F89E216F306F8
:1022A00091F734E0A31609F40DC282E0881508F412
:1022B0000CC2931609F40CC2112309F40AC28090CF
:1022C0002101882009F4FBC189899A89AB89BC89DD
:1022D00089839A83AB83BC83FE0131967F011E8E76
:1022E0009E2EAF2CF70111917F01812F0E94D10505
:1022F0008823B1F0FE8DF13009F4CEC1D7011197DA
:10230000E82FF0E0E95BFE4F808121E030E002C081
:10231000220F331F8A95E2F712271C9331E03E8F7C
:10232000888D998D8E159F05E9F69E8D913009F067
:10233000B3C1E2E08E1631F0892D9A2D0E948C02F5
:10234000B812AAC189819A81AB81BC81898B9A8B91
:10235000AB8BBC8B8091C1029091C202A091C30251
:10236000B091C4020196A11DB11D8093C10290934A
:10237000C202A093C302B093C402C1010E948C02A6
:1023800001E0B81200E0FA8C10E024E0129FF001A6
:102390001124EB55FD4F80819181A281B38101967B
:1023A000A11DB11D80839183A283B3831123C1F04A
:1023B000809120018823A1F08091A1029091A20236
:1023C000A091A302B091A4020196A11DB11D80931A
:1023D000A1029093A202A093A302B093A4021A8E2A
:1023E00080911F0118160CF0ECC19091A002992366
:1023F00009F4E7C12091C5023091C60240919E02C6
:1024000050919F02241B350B880F990B2817390711
:102410000CF061C180919A0290919B02A0919C0264
:10242000B0919D020196A11DB11D80939A029093D7
:102430009B02A0939C02B0939D0289EC93E00E94C2
:1024400071058091C5029091C6020E94C2078BEB74
:1024500093E00E9471058091C702882309F49CC112
:1024600086EB93E00E94710582E20E946C058091E8
:10247000A0028823D1F087EA93E00E947105809141
:102480009E0290919F020E94C2078FE993E00E94F2
:1024900071058091C5029091C60220919E023091F3
:1024A0009F02821B930B0E94C20780919502882392
:1024B00041F183E993E00E94710580918F02909130
:1024C00090020E94940788E893E00E947105A09111
:1024D0008F02B09190022DE330E00E94BB154B01BA
:1024E0005C014AE0B7FE0BC08DE20E946C056627D6
:1024F0007727CB01681979098A099B094AE00E946C
:10250000080780E893E00E9471058F8D877090E046
:102510000E94940785E793E00E9471054AE050E02D
:10252000C301B2010E944C079B8D953089F48DE662
:1025300093E00E9471056AE070E08D890E944E0769
:1025400083E693E00E947105802F90E00E9494073B
:102550008AE593E00E9471056AE070E0812F0E9495
:102560004E07FF2021F081E593E00E94710580E491
:1025700093E00E947105EC8DFD8D1191FD8FEC8F24
:10258000103118F480E30E946C0560E170E0812F47
:102590000E944E072E893F898C8D9D8D2817390703
:1025A00051F78CE393E00E948607109295021092F7
:1025B000C7028091CE02811126C00E94EC030091D7
:1025C0001601109117012091180130911901601B1B
:1025D000710B820B930B97FD4FC084E094E00E9437
:1025E00086070E94EC03605F784D8F4F9F4F60938A
:1025F000160170931701809318019093190180912F
:10260000CE028823C9F18091CC02811135C00E948D
:10261000EC0300919102109192022091930230916B
:102620009402601B710B820B930B97FD25C088E20F
:102630000E941E0682FD12C084E20E941E0690E0E7
:102640009195819591092091A0022111A8C09093A4
:102650009F0280939E0281E08093A0020E94EC037F
:102660006C507E4F8F4F9F4F6093910270939202F8
:10267000809393029093940280E090E0892B09F478
:1026800086C90E94000083C98F3F19F493948394F4
:1026900000CE87FFFECDFBCF8091BD029091BE02A0
:1026A000A091BF02B091C0020196A11DB11D8093FF
:1026B000BD029093BE02A093BF02B093C002F12C62
:1026C00015E063CEF12C12E060CEF12C13E05DCE6C
:1026D00014E0F12C5ACE3A8D332309F4AECE80911A
:1026E000C5029091C60297FD019695958795992709
:1026F0005C894B893A8929890023C1F19F938F9383
:102700008D891F928F931F925F931F924F931F92F9
:102710003F931F922F9387E492E09F938F931F9292
:1027200080E18F93DF92CF920E94EA15C6010E944A
:10273000FB068FE491E00E94FB060FB6F894DEBF23
:102740000FBECDBF8091960290919702A091980202
:10275000B09199020196A11DB11D809396029093AC
:102760009702A0939802B093990267CE9F938F939C
:102770001F925F931F924F931F923F931F922F932D
:10278000E2E6F2E0FF93EF931F9280E18F93DF92F6
:10279000CF920E94EA15CACF81EB93E063CE2091DD
:1027A0009E0230919F02821B930B43E09595879583
:1027B0004A95E1F7820F931F90939F0280939E02A8
:1027C0004DCF9A8D992309F438CE89CFE6E1F3E015
:1027D0001382128288EE93E0A0E0B0E084839583B8
:1027E000A683B78386E291E0918380838FEF9FEF8A
:1027F000958784870895B0E0A0E0E1E0F4E10C94CF
:102800005C155C016B017A016115710519F0FB0122
:1028100091838083E114F10451F0C70102978397FB
:1028200030F040E030E020E090E072C05E01E50171
:102830002196F5011081812F90E00E941215892BBD
:10284000A9F71D3201F52196F501118101E0E1148E
:10285000F10409F4DAC0F0E1EF16F10409F082C0E6
:10286000103359F488818F7D883509F076C019813D
:1028700022960260F0E1EF2EF12C812C912CA12CFC
:1028800088E0B82E8CC01B3221F4E5012296F501B8
:10289000118100E0DCCFEAE0EE16F10409F4BBC0E0
:1028A000F0E1EF16F10409F06DC0E7CF78E0E72E14
:1028B000F12C812C912CA12C60E1B62E70C03FE947
:1028C000310F3A3128F439EA332E80C021E09AC022
:1028D000302F3170C114D10431F0222309F1219736
:1028E000F601D183C08327FF21C060E070E080E063
:1028F00090E8311104C06FEF7FEF8FEF9FE722E286
:1029000030E03093670320936603462F372F282F3C
:10291000642F732F822FCDB7DEB7E1E10C947815C9
:1029200001FF04C02297F601D183C083332341F015
:1029300090958095709561957F4F8F4F9F4FE5CF14
:1029400097FFE3CF82E290E0909367038093660362
:102950006FEF7FEF8FEF9FE7D8CF10E3E114F10423
:1029600009F4A4CF28E0E216F10409F4A2CF0CF098
:1029700092CF812C912CA12CE0E4BE2E82E0E816AF
:10298000F10469F060E070E080E090E897010F2CBE
:10299000000C440B550B0E942E1549015A0120E0F2
:1029A00060E070E0CB0127010F2C000C660877086F
:1029B000FE0150ED352E310E39E0331540F43FEB7A
:1029C000310F3A3108F07BCF49EC342E310E3E14F2
:1029D0001F040CF07DCF27FD15C086169706A806AC
:1029E000B90678F0A30192010E941E15630D711DB6
:1029F000811D911D61307105810520E8920708F461
:102A000065CF2FEF21961081D3CF103309F42ACF51
:102A10002AE0E22EF12C9CEC892E982CA82C9CE02C
:102A2000B92EBDCF91110C941B15803219F089502D
:102A30008550C8F70895992788270895DB018F935B
:102A40009F930E945015BF91AF91A29F800D911D41
:102A5000A39F900DB29F900D11240895A1E21A2E0C
:102A6000AA1BBB1BFD010DC0AA1FBB1FEE1FFF1F32
:102A7000A217B307E407F50720F0A21BB30BE40B82
:102A8000F50B661F771F881F991F1A9469F76095C9
:102A90007095809590959B01AC01BD01CF01089583
:102AA0000E949215A59F900DB49F900DA49F800D3C
:102AB000911D112408952F923F924F925F926F9231
:102AC0007F928F929F92AF92BF92CF92DF92EF92BE
:102AD000FF920F931F93CF93DF93CDB7DEB7CA1B3F
:102AE000DB0B0FB6F894DEBF0FBECDBF09942A886A
:102AF000398848885F846E847D848C849B84AA8412
:102B0000B984C884DF80EE80FD800C811B81AA819E
:102B1000B981CE0FD11D0FB6F894DEBF0FBECDBF69
:102B2000ED010895A29FB001B39FC001A39F700D56
:102B3000811D1124911DB29F700D811D1124911DC5
:102B4000089597FB072E16F4009407D077FD09D05F
:102B50000E94C21507FC05D03EF4909581959F4FC9
:102B60000895709561957F4F0895EE0FFF1F0590B2
:102B7000F491E02D09940E949215B7FF0895821BED
:102B8000930B0895AA1BBB1B51E107C0AA1FBB1FD3
:102B9000A617B70710F0A61BB70B881F991F5A95E9
:102BA000A9F780959095BC01CD010895FC01819114
:102BB000861721F08823D9F7992708953197CF01F7
:102BC0000895FB01DC018D91019080190110D9F36A
:102BD000990B0895AEE0B0E0E0EFF5E10C946915D3
:102BE0000D891E898F89988D26E02C831A8309838D
:102BF00097FF02C080E090E801979E838D83AE012D
:102C0000455E5F4F698D7A8DCE0101960E941A163E
:102C10004D815E8157FD0AC02F81388542175307C9
:102C20000CF49A01020F131FF80110822E96E4E0B3
:102C30000C948515ABE0B0E0E0E2F6E10C945B1596
:102C40007C013B018A01FC0117821682838181FF8E
:102C5000C8C1CE0101965C01F7019381F30193FD98
:102C6000859193FF81913F01882309F453C18532F7
:102C700039F493FD859193FF81913F01853229F4C9
:102C8000B70190E00E940A18E7CF912C212C312C3B
:102C9000FFE1F31538F08B3211F190F4803209F135
:102CA000833229F137FC3CC020ED280F2A3050F543
:102CB00036FE20C08AE0989E200D1124922E06C078
:102CC0008D3291F0803371F7689430F8F30193FD01
:102CD000859193FF81913F018111DACF21C06894E2
:102CE00031F8689432F8F2CF689433F8EFCF6894F3
:102CF00034F8ECCFEAE02E9E200D1124222E6894A9
:102D000035F8E4CF8E3229F436FC04C1689436F8E5
:102D1000DDCF8C3619F4689437F8D8CF8836B1F205
:102D2000982F9F7D95549330E0F08336A1F183373F
:102D3000C1F1833509F063C02801F2E04F0E511C48
:102D4000F801C080D180692D70E036FC02C06FEFC1
:102D50007FEFC6010E94F4174C01689437F8820196
:102D60000AC00C5F1F4FFFE3F98388248394912CE2
:102D70006501E89437F833FE2DC0522C811491047C
:102D800071F5552009F468CFB70180E290E00E9408
:102D90000A185A94F6CFF801808189830E5F1F4F7D
:102DA000E4CF2801F2E04F0E511CF801C080D18021
:102DB000692D70E036FC02C06FEF7FEFC6010E9404
:102DC000FF174C018201D5CFB70180E290E00E944D
:102DD0000A182A942814190409F0B0F7CECFF60186
:102DE00037FC859137FE81916F01B70190E00E9419
:102DF0000A1851105A94F1E08F1A9108BFCF843607
:102E000019F0893609F077C0F80137FE6BC0608190
:102E10007181828193810C5F1F4FF32DFF763F2ECE
:102E200097FF09C090958095709561957F4F8F4F62
:102E30009F4F689437F82AE030E0A5010E943A18C5
:102E4000C82ECA188C2C432C36FE0CC0E89440F8CF
:102E5000C91440F434FE05C032FC03C0F32DFE7EDD
:102E60004F2E892C44FE95C0FE01EC0DF11D808192
:102E7000803309F087C0242D297E422E842D88704E
:102E8000582E43FC95C040FE8FC09C2C821418F431
:102E90002C0C922C981844FE91C0B70180E390E06E
:102EA0000E940A1842FE09C088E790E041FE02C075
:102EB00088E590E0B7010E940A18C91408F48AC096
:102EC000CA94D12C9FEFC91AD90ACA0CDB1CF6018F
:102ED00082916F01B70190E00E940A18AC14BD0402
:102EE000B1F74FCF60817181072E000C880B990BD1
:102EF0000E5F1F4F92CFD32CE894D4F82AE030E035
:102F0000853739F1232D297FD22E8F3601F148F4F0
:102F10008835A9F0F701868197812B96E2E10C9420
:102F20007715803749F08837A9F7D4FE02C0689436
:102F3000D2F820E130E00DC06894D4F8F6CF34FE2A
:102F400003C0822F8660D82E20E132E002C028E044
:102F500030E0F801D7FE0FC06081718182819381DA
:102F60000C5F1F4FA5010E943A18C82ECA183D2CAD
:102F7000E89437F867CF6081718190E080E00E5F60
:102F80001F4FF0CF42FC02C0839478CF8394839488
:102F900075CF842D867809F471CFF6CFB70180E222
:102FA00090E00E940A1883948214C0F3512C73CFCE
:102FB000522C5818821408F46ECFF8CF842D8678DE
:102FC00009F47BCF8BE241FE80E247FC8DE2B70142
:102FD00090E071CFB70180E390E00E940A189A94C4
:102FE0006CCF8FEF9FEF99CFFC010590615070403F
:102FF0000110D8F7809590958E0F9F1F0895FC01C2
:103000006150704001900110D8F7809590958E0F17
:103010009F1F08950F931F93CF93DF93182F092FAE
:10302000EB018B8181FD09C01FEF0FEF812F902FE6
:10303000DF91CF911F910F91089582FF14C02E81CF
:103040003F818C819D81281739073CF4E881F98103
:10305000CF0101969983888310838E819F81019689
:103060009F838E83E3CFE885F985812F0995892B8E
:10307000A1F3DACFFA01AA27283051F1203181F1EA
:10308000E8946F936E7F6E5F7F4F8F4F9F4FAF4F70
:10309000B1E03ED0B4E03CD0670F781F891F9A1F83
:1030A000A11D680F791F8A1F911DA11D6A0F711D37
:1030B000811D911DA11D20D009F468943F912AE043
:1030C000269F11243019305D3193DEF6CF0108952B
:1030D000462F4770405D4193B3E00FD0C9F7F6CF5C
:1030E000462F4F70405D4A3318F0495D31FD405224
:1030F000419302D0A9F7EACFB4E0A69597958795BA
:1031000077956795BA95C9F7009761057105089598
:103110009B01AC010A2E0694579547953795279544
:10312000BA95C9F7620F731F841F951FA01D0895DC
:04313000F894FFCF41
:10313400FFFFFFFF00E10000000000001904190474
:1031440019041904190410270000EB0500888E00E7
:103154000101000000005605D20497058C05B7054F
:103164009B05A70500C18081000000352E322E305A
:103174002D74657272610000040502060100030DDE
:103184000A007374617475730076657273696F6E87
:1031940000626164206172670066736B746167002A
:1031A400756E737570706F72746564207072657378
:1031B400657400727862770072785F73697A65006B
:1031C40072616E6765006D6F64756C6174696F6EB2
:1031D4000066736B006F6F6B00727373695F746862
:1031E400726573680065636300303D6F6666203105
:1031F4003D6372632D676174656420323D616C7751
:103204006179730069645F676174650030206F726F
:10321400203100736E725F6D696E0072616E676556
:1032240020302D34300073796E635F73697A6500E2
:1032340072616E676520312D380073796E635F7437
:103244006F6C0072616E676520302D370073796E84
:10325400635F76616C0077616E74206964783A68A4
:103264006578007265677265616400756E6B6E6F78
:10327400776E206B65790030312530325825303235
:1032840058253032582530325825303258253032BE
:1032940058003030253032582530325825303258D5
:0A32A4002530325825303258000062
:00000001FF
