:100000000C9468020C94CE080C94A7080C948008F9
:100010000C9459080C9490020C9490020C943208A1
:100020000C9490020C9490020C94F5080C945E09C8
:100030000C9490020C9490020C9490020C949002F8
:100040000C9490020C9490020C9490020C949002E8
:100050000C9490020C9490020C9490020C94E8077B
:100060000C9490020C9490020C9490020C949002C8
:100070000C9490020C9490020C9490020C949002B8
:100080000C9490020C9490020C9490020C949002A8
:100090000C9490020C9490020C9490020C94900298
:1000A0000C9490020C9490020C949002080B0002A5
:1000B0000202000009040000010202000005240001
:1000C0001001052401010104240206052406000193
:1000D0000705810310004009040100020A00000026
:1000E00007050202400000070583024000000403E8
:1000F000090412010002EF0201409A230C80000162
:1001000001020301416461667275697400466561AC
:10011000746865722033327534007B226572726FA9
:1001200072223A22526164696F20496E69742046D6
:1001300061696C6564227D002C226972715F636F56
:10014000756E74223A002C226665695F6F6B223AE5
:10015000002C22727373695F6F6B223A002C22624B
:10016000375F6669786564223A002C226563635FB5
:100170006465636C696E6564223A002C2265636372
:100180005F6669786564223A002C22656363223ACF
:10019000002C22676174655F706172697479223A1C
:1001A000002C22676174655F6666223A002C226724
:1001B0006174655F6D7362223A002C226761746519
:1001C0005F7A65726F223A002C22676174655F73F3
:1001D000686F7274223A002C22676174655F7061E7
:1001E0007373223A002C22676174655F64726F70CA
:1001F000706564223A002C2269645F67617465222D
:100200003A002C22736E725F64726F7070656422A4
:100210003A002C22656D6974746564223A002C22C0
:10022000736E725F6D696E223A002C2273796E6371
:100230005F746F6C223A00222C2273796E635F73B5
:10024000697A65223A00222C2273796E6332223A4F
:1002500022002C2273796E6331223A2200222C2252
:100260007061796C6F61645F6C656E223A00222C5C
:100270002272786277223A22002C22727373695FAD
:10028000746872657368223A2200222C227273739A
:10029000695F726177223A00222C22697271666C62
:1002A00061677332223A2200222C22697271666CD5
:1002B00061677331223A22002C226F706D6F646582
:1002C000223A22007B226B6579223A227374617490
:1002D0007573222C22726573223A747275652C2212
:1002E000726164696F5F6F6B223A00227D00222C7D
:1002F0002276616C223A22007B226B6579223A22B7
:1003000072656772656164222C22726573223A7489
:100310007275652C22726567223A2200227D007B6D
:10032000226E616D65223A2253656E736F7253744B
:100330006174696F6E526164696F222C2266697202
:100340006D77617265223A2200227D7D007D2C222C
:1003500064617461223A7B226964223A22002C2271
:10036000656363223A002C2267617465223A002C8F
:10037000226372636F6B223A002C22637263223A0B
:10038000002C226973725F7573223A002C226C6E06
:1003900061223A002C226665695F687A223A002C55
:1003A000226665695F726177223A002C22736E7251
:1003B000223A002C226E6F697365223A006C6174D8
:1003C000650073796E63002C22727373695F7372B8
:1003D00063223A22007B226B6579223A227465728D
:1003E00072615F756866222C226D657461223A7BAA
:1003F00022646174615F74797065223A2274657257
:1004000072615F756866222C2272737369223A00EA
:100410007B226572726F72223A22526164696F2088
:10042000496E6974204661696C6564227D00000034
:100430000000240027002A002D00300000000000EA
:10044000250028002B002E003100040404040403BE
:100450000405020202020403020202020606060664
:10046000060604040202020404040802011040808B
:10047000401020408040800802040180402010028B
:1004800001108010204040200000000200090F00F1
:1004900000030401000C0000000000000000000048
:1004A000000000000000002C22657272223A220037
:1004B00066616C7365007472756500222C2272652A
:1004C00073223A007B226B6579223A2200004C1499
:1004D00011241FBECFEFDAE0DEBFCDBF23E0AAE7D5
:1004E000B2E001C01D92AC36B207E1F712E0A0E025
:1004F000B1E0E0E0F2E302C005900D92AA37B10747
:10050000D9F712E0C8E6D2E004C02197FE010E94AC
:100510001B16C736D107C9F70E94A00B0C94FE1812
:100520000C940000FC019C012C5F3F4F80E047E0F1
:100530009191892798E087FF08C0880F8427915000
:10054000D1F7E217F307A1F70895880FF8CF8CBD14
:100550009DBD08959091E902911103C08FEF9FEF27
:1005600008954FB7F89492E09093E9009091F200CB
:10057000292F30E01216130614F421E030E0232B6B
:1005800029F084E68093E8028091F100992339F004
:100590002091F200211103C02BE62093E8004FBF09
:1005A0009923E1F290E008952FB7F89483E08093C7
:1005B000E9009091E800892F807295FF04C0909126
:1005C000F20080E4891B2FBF08958091E002811121
:1005D0000DC082E08093DC0284E08093DD02109203
:1005E000DF021092DE0281E08093E0028CED92E067
:1005F0000895282F30E0F901E857FB4F9491F90155
:10060000E759FB4F8491265B3B4FF901249122234C
:1006100009F430C09923E9F091509F30D0F4E92FCC
:10062000F0E0EB5EFC4F0C941B16430347032403DE
:100630003B033F032903290329034A0350035403BF
:1006400058035E0329036203909180009F77909383
:100650008000E22FF0E0EE0FFF1FE45CFB4FA5915E
:10066000B4919FB7F894EC91611132C080958E23BC
:100670008C939FBF0895909180009F7DE8CF9091CB
:100680008000977FE4CF94B59F7794BDE2CF94B577
:100690009F7DFBCF909190009F7790939000D9CF52
:1006A000909190009F7DF9CF90919000977FF5CF2A
:1006B0009091C0009F779093C000CBCF9091C000E5
:1006C0009F7DF9CF9091C200977F9093C200C1CFD8
:1006D0008E2BCECFCF93DF9390E0FC01E759FB4FF9
:1006E0002491865B9B4FFC0184918823D1F090E09C
:1006F000880F991FFC01E25DFB4FA591B491FC01AD
:10070000E45CFB4FC591D49161110EC09FB7F89482
:100710008C91E22FE0958E238C932881E223E8834D
:100720009FBFDF91CF9108958FB7F894EC91E22BA2
:10073000EC938FBFF6CF3FB7F8948091D802909199
:10074000D902A091DA02B091DB0226B5A89B05C0C0
:100750002F3F19F00196A11DB11D3FBFBA2FA92F40
:10076000982F8827BC01CD01620F711D811D911D3D
:1007700043E0660F771F881F991F4A95D1F70895A8
:100780008F929F92AF92BF92CF92DF92EF92FF92A1
:100790004B015C010E949B036B017C010E949B0347
:1007A0006C197D098E099F09683E7340810591058A
:1007B000A8F321E0821A9108A108B10888EEC80EBA
:1007C00083E0D81EE11CF11C81149104A104B10442
:1007D00029F7FF90EF90DF90CF90BF90AF909F9060
:1007E0008F9008952FB7F8946091D4027091D5023C
:1007F0008091D6029091D7022FBF08950E949B034B
:100800006093CC027093CD028093CE029093CF027E
:1008100081E08093D0028091830290918402A09124
:100820008502B09186020196A11DB11D80938302BD
:1008300090938402A0938502B09386020895089550
:1008400040917C0250917D0220917A0230917B028E
:1008500042175307B4F49091E8009570E1F390913A
:10086000E80092FD19C08093F10080917C02909184
:100870007D0201968F739927892B19F48EEF80934F
:10088000E80080917C0290917D02019690937D0218
:1008900080937C0281E0089580E00895EF92FF92BA
:1008A0000F931F93CF93DF93F82E192FE62E042F6B
:1008B00081E0860F880F0E94200483E00E942004BC
:1008C000CF2DD12FEC0EFD2EF11CCE15DF05B9F08A
:1008D00007FF13C0FE0184910E942004182F80E0BE
:1008E0000E942004812321968111EFCFDF91CF91C7
:1008F0001F910F91FF90EF9008958881EDCF81E0D7
:10090000F5CFDF92EF92FF920F931F93CF93DF9378
:10091000D82E8A01EB017B01E40EF51ECE15DF0512
:1009200059F0D7FE12C0FE0184910E942004219646
:100930008111F4CF0FEF1FEFC801DF91CF911F910D
:100940000F91FF90EF90DF9008958881EECF0F9385
:100950001F93CF93DF931F92CDB7DEB782E08983D9
:1009600042E450E06CEA70E080E80E9481040E945A
:10097000E502DC0112960D911C910115110589F01B
:10098000D801ED91FC910280F381E02DBE016F5FF3
:100990007F4FC801099597FD04C0F80100851185B6
:1009A000ECCF89810F90DF91CF911F910F91089526
:1009B0008F929F92AF92BF92CF92DF92EF92FF926F
:1009C0000F931F93CF93DF936C017B018A0180917A
:1009D0000B01882309F45BC08091E902882309F4A4
:1009E00056C08091800280FF05C08091E000826047
:1009F0008093E000E801B12C8AEFA82E93E0892EC5
:100A00002AE3922E209711F4BB20D9F10E94D40240
:100A100081110AC0AA94AA20D1F161E070E080E0BF
:100A200090E00E94C003EECF8C171D0611F00CF071
:100A30008C2F9FB7F8948092E9002091E80025FD63
:100A400002C09FBFDFCF282F30E0C21BD30BF701BE
:100A5000815020F041914093F100FACFE20EF31E55
:100A6000BB2021F09092E800B12CEBCF8091E80000
:100A700085FDE7CF9092E800BB24B394209709F35B
:100A8000F3CF84E680937F02101611063CF081E0DC
:100A900090E0F6019383828310E000E0C801DF91CB
:100AA000CF911F910F91FF90EF90DF90CF90BF906B
:100AB000AF909F908F900895CF93DF931F92CDB703
:100AC000DEB76983DC01ED91FC910280F381E02DBA
:100AD00041E050E0BE016F5F7F4F09950F90DF91BD
:100AE000CF910895682F8AE193E00C945C050F93F1
:100AF0001F93CF93DF938C01D0E0C0E0F801EC0F9F
:100B0000FD1F6491662341F08AE193E00E945C0539
:100B1000892B11F02196F2CFCE01DF91CF911F9159
:100B20000F91089583E08093E9008091F20088237B
:100B300019F08AE38093E80008950E94D40290E0BF
:100B40000895FC018485958597FD05C02FEF3FEF43
:100B50003587248708950C94AA02CF93DF93EC0184
:100B60008C859D8597FF04C00E94AA029D878C8773
:100B70008C859D85DF91CF910895FC0184859585B5
:100B800097FD0BC09FB7F89482E08093E9008091B5
:100B9000F2009FBF90E0019608959FB7F89482E01D
:100BA0008093E9008091F2009FBF90E008950F9339
:100BB0001F93CF93DF93482F50E0EA01D595C79557
:100BC0009A013595279535952795DA0173E0B59506
:100BD000A7957A95E1F79A2F922798278A01E5E061
:100BE00015950795EA95E1F79027692F617070E0F8
:100BF000660F771F9C2F9A2789278A01B6E01595E3
:100C00000795BA95E1F78027E82FE170F0E0EE0F45
:100C1000FF1FEE0FFF1F6E2B2C272A2714E0559580
:100C200047951A95E1F724272170862F822BDF91B3
:100C3000CF911F910F91089508958EBD00000DB4BE
:100C400007FEFDCF8EB50895CF93C82F80E591E0C4
:100C50000E94A70260E088E00E94F9028C2F8F7743
:100C60000E941D0680E00E941D06C82F61E088E0FA
:100C70000E94F9028C2FCF910895CF93DF93D82F44
:100C8000C62F80E591E00E94A70260E088E00E9404
:100C9000F9028D2F80680E941D068C2F0E941D0670
:100CA00061E088E0DF91CF910C94F90260911C0122
:100CB000662319F082E00E943D0660911A016B3EA6
:100CC00019F089E10E943D0660911B01653019F021
:100CD00088E30E943D0660911D01683819F08EE29C
:100CE0000E943D0660911E016195660F643E19F0F9
:100CF00089E20C943D06089560E38FE60E943D066C
:100D000060E082E00E943D0665E083E00E943D06CF
:100D100060E084E00E943D0661E085E00E943D06BF
:100D200069E986E00E943D066CE687E00E943D0688
:100D300060E888E00E943D0660E089E00E943D0690
:100D40006BEE89E10E943D066BEE8AE10E943D0652
:100D500060E087E30E943D0660E08DE30E943D066F
:100D600065E088E30E943D0660E08CE20E943D065B
:100D700062E08DE20E943D0668E88EE20E943D0638
:100D800063ED8FE20E943D0661E980E30E943D062B
:100D90006FE581E10E943D066FE88CE30E943D060D
:100DA00062E485E20E943D0664EE89E20C943D0611
:100DB000CF92DF92EF92FF92F82E81E00E942406FC
:100DC000837E682F6F2981E00E943D060E94F20316
:100DD0006B017C0128EEC20E23E0D21EE11CF11C47
:100DE00087E20E94240687FD07C00E94F2036C156B
:100DF0007D058E059F05A0F3FF90EF90DF90CF90CB
:100E00000895FC0101900020E9F73197AF01481BDC
:100E1000590BBC018AE193E00C94D8048F929F9205
:100E2000AF92BF920F931F93CF93DF93CDB7DEB7EF
:100E3000A1970FB6F894DEBF0FBECDBF19A2423006
:100E400008F44AE08E010F5D1F4F842E912CB12CC7
:100E5000A12CA50194010E949415E62FB901CA01A5
:100E6000EA30F4F4E05DD801EE938D01232B242BBE
:100E7000252B79F790E080E0109719F0CD010E94C2
:100E80000107A1960FB6F894DEBF0FBECDBFDF916C
:100E9000CF911F910F91BF90AF909F908F90089529
:100EA000E95CE1CF0C940E07AB01682F70E090E095
:100EB00080E00C945207CF93DF930E947705EC01FA
:100EC0008FE491E00E9401078C0F9D1FDF91CF916D
:100ED00008951F93CF93DF93182FEB0184EC94E0D8
:100EE0000E9477058AEE92E00E9401078BEB94E066
:100EF0000E94770580EB94E0112311F086EB94E0DB
:100F00000E94770511110CC0209751F087EA94E0F8
:100F10000E947705CE010E94010782E20E947205BD
:100F20008DE70E9472058FE491E0DF91CF911F91D0
:100F30000C940107CF92DF92EF92FF92CF93DF9351
:100F40006C01990FEE08FF08F7FE17C08DE20E94B2
:100F50007205EC0166277727CB016C197D098E0994
:100F60009F094AE00E940E078C0F9D1FDF91CF91D1
:100F7000FF90EF90DF90CF9008954AE0C701B6014F
:100F8000DF91CF91FF90EF90DF90CF900C940E0700
:100F9000CF93DF9325E0AC01249FC001259F900DE6
:100FA00011246AE070E00E940716D82FC92FCB01E8
:100FB0000E949A078EE20E9472058D2F9C2F97FF48
:100FC00003C0919581959109DF91CF910C949A0777
:100FD0001F920F920FB60F9211242F933F938F936E
:100FE0009F93AF93BF938091D4029091D502A0912B
:100FF000D602B091D7023091D30226E0230F2D37CD
:1010000058F50296A11DB11D2093D3028093D402FE
:101010009093D502A093D602B093D7028091D802C4
:101020009091D902A091DA02B091DB020196A11D44
:10103000B11D8093D8029093D902A093DA02B093A5
:10104000DB02BF91AF919F918F913F912F910F90B4
:101050000FBE0F901F90189529E8230F0396A11D2E
:10106000B11DD2CF1F920F920FB60F9211242F9362
:101070003F934F935F936F937F938F939F93AF9320
:10108000BF93EF93FF93E0911401F091150109953F
:10109000FF91EF91BF91AF919F918F917F916F9150
:1010A0005F914F913F912F910F900FBE0F901F9026
:1010B00018951F920F920FB60F9211242F933F9302
:1010C0004F935F936F937F938F939F93AF93BF9350
:1010D000EF93FF93E0911201F09113010995FF91B5
:1010E000EF91BF91AF919F918F917F916F915F91A0
:1010F0004F913F912F910F900FBE0F901F90189519
:101100001F920F920FB60F9211242F933F934F937C
:101110005F936F937F938F939F93AF93BF93EF935F
:10112000FF93E0911001F09111010995FF91EF916A
:10113000BF91AF919F918F917F916F915F914F91EF
:101140003F912F910F900FBE0F901F9018951F92F7
:101150000F920FB60F9211242F933F934F935F93EB
:101160006F937F938F939F93AF93BF93EF93FF936F
:10117000E0910E01F0910F010995FF91EF91BF9160
:10118000AF919F918F917F916F915F914F913F911F
:101190002F910F900FBE0F901F9018951F920F92D6
:1011A0000FB60F9211242F933F934F935F936F933A
:1011B0007F938F939F93AF93BF93EF93FF93E091B0
:1011C0000C01F0910D010995FF91EF91BF91AF9145
:1011D0009F918F917F916F915F914F913F912F914F
:1011E0000F900FBE0F901F9018951F920F920FB681
:1011F0000F9211248F939F938091E1009091E100D1
:10120000937F9093E10083FF0FC01092E90091E07B
:101210009093EB001092EC0092E39093ED0010920B
:10122000E90298E09093F00082FF1CC093E0909355
:10123000E9009091F200992319F09AE39093E80065
:1012400090917F02992329F090917F029150909381
:101250007F029091E802992329F09091E802915041
:101260009093E80284FF18C08091E2008E7E816036
:101270008093E2008091E1008F7E8093E100809175
:1012800080028E7E8061809380029F918F910F906B
:101290000FBE0F901F90189580FFF7CF8091E2004E
:1012A0008E7E80618093E2008091E1008E7E80934B
:1012B000E100809180028E7E8160E5CF1F920F92C7
:1012C0000FB60F921124CF92DF92EF92FF920F93FD
:1012D0001F932F933F934F935F936F937F938F93BE
:1012E0009F93AF93BF93EF93FF93CF93DF93CDB7CC
:1012F000DEB76C97DEBFCDBF1092E9008091E800A9
:1013000083FF2FC089E0FE017596EE2EDF2E8150FF
:1013100029F09091F10090833196F9CF84E6809383
:10132000E80282EF8093E8008D8987FF39C09091B1
:10133000E80090FFFCCF982F907609F033C19E898A
:101340004F89588D2F89F88C911131C0803861F503
:10135000809181028093F1001092F1008EEF8093D2
:10136000E8006C960FB6F894DEBF0FBECDBFDF91DC
:10137000CF91FF91EF91BF91AF919F918F917F910D
:101380006F915F914F913F912F911F910F91FF901E
:10139000EF90DF90CF900F900FBE0F901F90189599
:1013A0009EEF9093E800C7CF1092F100D5CF913017
:1013B00059F48111D3CF4130510581F680918102DA
:1013C0008D7F80938102CACF933049F48111C6CFBB
:1013D0004130510519F6809181028260F2CF95303B
:1013E00041F48091E80080FFFCCF20682093E30067
:1013F000B5CF963009F0A8C00B8D1C8D22E010925D
:10140000E90010927D0210927C02F2122EC010921E
:101410007B0210927A020E94A7041F8299E09983AE
:10142000FA8291E09E8390EA98879AEF99872091BB
:101430007C0230917D02275F3F4F3C832B838D835D
:101440001092E90010927D0210927C0210937B02B0
:1014500000937A0249E050E0BE016F5F7F4F80E069
:101460000E9481040E94A70479CF10937B0200930D
:101470007A020E94E502DC0112960D911C91011581
:10148000110509F457C1D801ED91FC910480F58153
:10149000E02D6E2D7D2DC8010995009709F045C1FD
:1014A000F80100851185EBCFF3E0FF120EC08F89A4
:1014B000882309F440C0823061F440E86CE08DE09C
:1014C00091E00E944E04811149CF81E28093EB00AC
:1014D00048CF813029F440E868E084E091E0F1CF22
:1014E000833099F70E94E502DC011296ED90FC90A2
:1014F0008E010F5F1F4F6801E114F10479F0D701ED
:10150000ED91FC910680F781E02DB801C7010995A6
:10151000080F111DF701E084F184EECFD8011C9271
:10152000F60101900020E9F73197BF016C197D09A0
:1015300040E0C601C6CF6EEE70E0FB01449150E082
:1015400080E80E9481040ACF973009F4BECF98301A
:1015500021F481E08093F10001CF993009F0FECEB3
:10156000837009F0B2CFE5E3F1E081E031E096E38A
:101570002191222371F08093E9003093EB00DF0189
:1015800011972C912093EC009093ED008F5F8730A2
:1015900079F78EE78093EA001092EA008F898093B2
:1015A000E902DCCE8B8D9C8D1092E90010927D02B9
:1015B00010927C0290937B0280937A02898D811134
:1015C0009AC08E899D89913A49F4813209F07DCF84
:1015D00047E050E064E071E080E0B3CF913209F081
:1015E00074CF833269F48F89988DB0E0A0E0809346
:1015F000000190930101A0930201B0930301AECECC
:101600008032A9F48091E80082FFFCCF88E0E4E01A
:10161000F1E0815029F09091F10090833196F9CF5B
:1016200084E68093E8028BEF8093E80097CE8232C5
:1016300009F094CE8F8980930B01EEEFFFE785913F
:1016400094918B3F9C4D51F1E0E0F8E080910401D2
:1016500090910501A0910601B0910701803B944053
:10166000A105B105F1F480910B0180FD1AC0EE3F98
:101670008AE0F80789F587E797E79183808380916F
:10168000600080937E0288E19BE00FB6F894A895F5
:10169000809360000FBE9093600060CEEEEFFAE0A2
:1016A000D5CF808191818737974709F057CEA8958C
:1016B0008091600088618093600080917E028093B9
:1016C0006000EE3F2AE0F20789F08091FE0A9091D7
:1016D000FF0A9183808342CE80819181873798076A
:1016E00051F29093FF0A8093FE0AC5CF1092FF0A31
:1016F0001092FE0A33CE0E94E502DC0112960D9193
:101700001C910115110509F4E0CED801ED91FC9171
:101710000190F081E02D6E2D7D2DC801099581117C
:101720001DCEF80100851185ECCF181619060CF4B2
:1017300015CECBCEF1E0FF12B7CE62EF70E0FDCE5A
:10174000CF93DF93CDB7DEB76F970FB6F894DEBFB8
:101750000FBECDBF789484B5826084BD84B58160AE
:1017600084BD85B5826085BD85B5816085BD80916C
:101770006E00816080936E001092810080918100E4
:1017800082608093810080918100816080938100DC
:1017900080918000816080938000809191008260C0
:1017A000809391008091910081608093910080915D
:1017B00090008160809390008091C100846080934C
:1017C000C1008091C10082608093C1008091C100FE
:1017D00081608093C1008091C30081608093C300C9
:1017E0008091C00082608093C0008091C2008160BF
:1017F0008093C20080917A00846080937A00809107
:101800007A00826080937A0080917A008E7F809344
:101810007A0080917A00806880937A001092E902C1
:1018200010928102109280028091D7008160809393
:10183000D70080EA8093D80089B58F7E89BD89B5AD
:10184000826089BD09B400FEFDCF61E070E080E0F8
:1018500090E00E94C0038091D8008F7C80618093CB
:10186000D8008091E000807F8093E0008091E100CB
:101870008E7E8093E1008DE08093E2008FEF9FEFFA
:10188000909327038093260361E088E00E946A0317
:1018900061E088E00E94F90260E087E00E946A034C
:1018A0001FB7F89480918202811127C0EBE5F4E024
:1018B0008491EAE7F4E09491E82FF0E0EE0FFF1F47
:1018C000E25DFB4FA591B491EC91E92321F461E035
:1018D00081E10E94F90261E081E10E946A038CB516
:1018E00080618CBD8CB580648CBD61E08FE00E940E
:1018F0006A0361E080E10E946A03809182028F5F47
:10190000809382021FBF61E084E00E946A0361E06D
:1019100084E00E94F9026AE070E080E090E00E94BA
:10192000C00360E084E00E94F9026AE070E080E0B9
:1019300090E00E94C00384E00E94D8060E947C06CA
:101940000E9456068FE20E942406833D09F456C287
:101950001092D2028AE191E00E945B078EEF93E041
:10196000909315018093140180916A0080638093A5
:101970006A00EE9A80E10E94D8062E0121E1420E13
:10198000511CAE014B5E5F4F5F8B4E8BCE010596B7
:10199000998F888F8091D202882309F45EC01091BC
:1019A000CB02112321F080919502811156C087E26C
:1019B0000E94240680FF51C0111121C084E20E94C0
:1019C000240690E09195819591099093CA028093A5
:1019D000C90281E08093CB0280918B0290918C02AE
:1019E000A0918D02B0918E020196A11DB11D809330
:1019F0008B0290938C02A0938D02B0938E02809103
:101A0000950281112AC060E28EE10E943D068CE8B9
:101A100091E00197F1F781E20E942406182F82E2FB
:101A20000E942406912F9093900280938F0281E070
:101A3000809395028091870290918802A0918902FB
:101A4000B0918A020196A11DB11D809387029093E7
:101A50008802A0938902B0938A028AE193E00E94EF
:101A6000BD05892B09F4A2C38AE193E00E94A10578
:101A70008D3099F3E091D1028A3009F08BC3AE2FFB
:101A8000B0E0A651BD4F1C92EE2309F4B4C16AE345
:101A900070E08AEE92E00E943C168C01009719F0EB
:101AA000FC0111928F0162E571E08AEE92E00E94E2
:101AB0004716892B09F0ACC18EE20E942406182F2C
:101AC00084EC92E00E9477058091D20290E00E941F
:101AD0009A0788EB92E00E94770581E00E94240635
:101AE00060E170E00E94540788EA92E00E94770566
:101AF00087E20E94240660E170E00E94540788E9B2
:101B000092E00E94770588E20E94240660E170E07E
:101B10000E9454078AE892E00E94770584E20E94BE
:101B200024066AE070E00E94540789E792E00E9470
:101B3000770589E20E94240660E170E00E94540764
:101B40008EE692E00E94770589E10E94240660E11A
:101B500070E00E9454078DE592E00E94770588E3CB
:101B60000E9424066AE070E00E94540782E592E039
:101B70000E9477058FE20E94240660E170E00E94D7
:101B8000540786E492E00E94770580E30E942406D1
:101B900060E170E00E94540787E392E00E947705BD
:101BA000812F90E0E3E095958795EA95E1F78770BE
:101BB000992701960E949A078AE292E00E9477058F
:101BC0001770812F90E00E949A078EE192E00E94A8
:101BD000770580911F01082E000C990B0E949A072F
:101BE00082E192E00E9477056091960270919702DF
:101BF00080919802909199024AE050E00E94520729
:101C000082E092E00E94770560919A0270919B02B7
:101C100080919C0290919D024AE050E00E94520700
:101C200086EF91E00E9477056AE070E080912001E4
:101C30000E94540785EE91E00E9477056091A10211
:101C40007091A2028091A3029091A4024AE050E018
:101C50000E94520787ED91E00E9477056091A502EE
:101C60007091A6028091A7029091A8024AE050E0EC
:101C70000E94520788EC91E00E9477056091A902CA
:101C80007091AA028091AB029091AC024AE050E0C0
:101C90000E9452078AEB91E00E9477056091AD02A5
:101CA0007091AE028091AF029091B0024AE050E094
:101CB0000E9452078DEA91E00E9477056091B1027F
:101CC0007091B2028091B3029091B4024AE050E068
:101CD0000E94520781EA91E00E9477056091B50267
:101CE0007091B6028091B7029091B8024AE050E03C
:101CF0000E94520781E991E00E9477056091B90244
:101D00007091BA028091BB029091BC024AE050E00F
:101D10000E94520789E891E00E9477056AE070E02E
:101D2000809121010E9454078BE791E00E94770582
:101D30006091C5027091C6028091C7029091C8025D
:101D40004AE050E00E9452078AE691E00E9477053F
:101D50006091C1027091C2028091C3029091C4024D
:101D60004AE050E00E9452078DE591E00E9477051D
:101D70006091BD027091BE028091BF029091C0023D
:101D80004AE050E00E94520781E591E00E94770509
:101D900060918B0270918C0280918D0290918E02E5
:101DA0004AE050E00E94520786E491E00E947705E5
:101DB00060918702709188028091890290918A02D5
:101DC0004AE050E00E94520788E391E00E947705C4
:101DD00060918302709184028091850290918602C5
:101DE0004AE050E00E9452078DE70E9472058FE49E
:101DF00091E00E9401071092D1022FCE81E00E9453
:101E000024068F3F09F4A4CD81E08093D202A6CDB1
:101E100069E571E08AEE92E00E944716892B69F429
:101E20008FE193E00E9477058BE391E00E94010728
:101E30008CE193E00E945B07DECF0115110521F0D4
:101E4000F8018081811104C061E671E080E01EC06C
:101E50006CE771E08AEE92E00E944716892BC9F484
:101E600069E671E0C8010E94471660E771E0892BBE
:101E700069F784E00E94D8060E947C060E945606FC
:101E800080E10E94D80670E060E081E00E9469076E
:101E9000B2CF63E871E08AEE92E00E944716892B88
:101EA00069F450E040E070E060E0C8010E94611415
:101EB00060931A0189E10E943D06E5CF68E871E070
:101EC0008AEE92E00E944716892BC9F44AE050E05E
:101ED00070E060E0C8010E9461148B019C01015018
:101EE000110921093109003411052105310518F0C6
:101EF00060E971E0ABCF60931B0188E3DCCF66E95A
:101F000071E08AEE92E00E944716892BC9F461EADB
:101F100071E0C8010E944716892B31F410921C0110
:101F200060911C0182E0C7CF65EA71E0C8010E94A0
:101F30004716892B09F088CFF8E0F0931C01F0CF09
:101F400069EA71E08AEE92E00E944716892BC9F493
:101F50004AE050E070E060E0C8010E9461148B012B
:101F60009C0101581F4F2F4F3F4F0C361105210583
:101F7000310508F0BDCF60931E016195660F89E2BF
:101F80009ACF65EB71E08AEE92E00E944716892BAA
:101F900091F44AE050E070E060E0C8010E946114F2
:101FA000633071058105910518F069EB71E04ECF42
:101FB0006093210168CF64ED71E08AEE92E00E94A7
:101FC0004716892B91F44AE050E070E060E0C801C8
:101FD0000E946114623071058105910518F06CED65
:101FE00071E034CF609320014ECF63EE71E08AEE52
:101FF00092E00E944716892B91F44AE050E070E08D
:1020000060E0C8010E946114693271058105910583
:1020100018F06BEE71E01ACF60931F0134CF66EFBA
:1020200071E08AEE92E00E944716892B31F54AE072
:1020300050E070E060E0C8010E9461148B019C01D7
:102040000150110921093109083011052105310517
:1020500018F060E072E0FACE20911D01277CAB0100
:102060004150510973E0440F551F7A95E1F7622FF3
:10207000642B60931D018EE21ECF6AE072E08AEE4F
:1020800092E00E944716892BA1F44AE050E070E0EC
:1020900060E0C8010E9461146830710581059105F6
:1020A00018F063E172E0D2CE20911D01287F622BEF
:1020B000E0CF6DE172E08AEE92E00E944716892B34
:1020C00099F56AE370E0C8010E943C1666E272E08E
:1020D000009709F4BBCEFC0111927F014AE050E069
:1020E00070E060E0C8010E9461144B015C0140E1B6
:1020F00050E070E060E0C7010E9461149501840126
:10210000015011092109310904301105210531055A
:1021100008F0EECE6F3F71058105910511F008F0D2
:10212000E7CE8EE2880DC7CE63E372E08AEE92E0DE
:102130000E944716892B59F540E150E070E060E0BD
:10214000C8010E946114162F88EF92E00E94770563
:10215000103118F480E30E94720560E170E0812F75
:102160000E9454078EEE92E00E947705812F0E9414
:102170002406182F803118F480E30E94720560E174
:1021800070E0812F0E9454078BEE92E053CE6BE3F8
:1021900072E05CCEEF3208F060CC91E09E0F90933D
:1021A000D102F0E0E651FD4F808357CCF090D2028F
:1021B000FF2009F45AC288E20E9424068F3F09F4E6
:1021C00050C29091D002911102C082FF4AC2F8948D
:1021D0008091D002882309F443C08090CC02909073
:1021E000CD02A090CE02B090CF021092D00278948F
:1021F00085E0F20111928A95E9F760901B01F4E005
:10220000F61510F465E0662E8091CB0281110BC0AB
:1022100084E20E94240690E0919581959109909323
:10222000CA028093C90288E10E942406782E80E5C4
:1022300091E00E94A70260E088E00E94F90280E03D
:102240000E941D065B8E4A8E8201802F841986159E
:1022500060F480E00E941D06F80181938F01F5CFA4
:102260000E949B034B015C01C0CF61E088E00E94AB
:10227000F9020E949B039B01AC01281939094A0904
:102280005B092C8F3D8F4E8F5F8F35E0631261C2EB
:10229000C2010E949202282EBD88882483948B114B
:1022A000812C620100E0912C10E0312CF60181912B
:1022B0006F0181119EC033940E94D705080F2E89AB
:1022C0003F89C216D30691F734E0331609F444C2AD
:1022D00042E0491508F442C2143009F4A6C00023B4
:1022E00009F42AC29090210115E0992009F49EC0BA
:1022F00089899A89AB89BC8989839A83AB83BC839A
:10230000CE0101966C0100E01C01F60111916F01F4
:10231000812F0E94D7058823A1F0013009F471C0F4
:10232000D6011197E82FF0E0E95BFE4F808121E0B4
:1023300030E002C0220F331F8A95E2F712271C9368
:1023400001E0488D598DC416D506F9F6013009F023
:1023500058C052E0951629F0C1010E949202B812AD
:1023600050C089819A81AB81BC81898B9A8BAB8B60
:10237000BC8B8091C5029091C602A091C702B0911A
:10238000C8020196A11DB11D8093C5029093C6029B
:10239000A093C702B093C802C2010E94920299247E
:1023A00093948F2CB81619F189899A89AB89BC89C5
:1023B00089839A83AB83BC83CE0101966C01982EEE
:1023C0008D2CF601108180E8810F8083892D982D56
:1023D0000E949202B81609F441C2F60111936F01EE
:1023E000288D398D2E173F0761F7812C902E10E034
:1023F0001DC08F3F19F41F5F93945ECF87FF5CCFA2
:10240000FBCF8091C1029091C202A091C302B09112
:10241000C4020196A11DB11D8093C1029093C20216
:10242000A093C302B093C40215E0912C34E0139F33
:10243000F0011124EB55FD4F80819181A281B38180
:102440000196A11DB11D80839183A283B3831123C3
:10245000C1F0809120018823A1F08091A102909188
:10246000A202A091A302B091A4020196A11DB11DE8
:102470008093A1029093A202A093A302B093A4021E
:10248000F12C80911F0118160CF06AC19091A002E6
:10249000992309F465C12091C9023091CA02409183
:1024A0009E0250919F02241B350B880F990B281711
:1024B00039070CF055C180919A0290919B02A0912E
:1024C0009C02B0919D020196A11DB11D80939A02BC
:1024D00090939B02A0939C02B0939D0285ED93E0A4
:1024E0000E9477058091C9029091CA020E94C80794
:1024F00087EC93E00E9477058091CB02882309F452
:1025000098C182EC93E00E94770582E20E947205F6
:102510008091A0028823D1F083EB93E00E9477059D
:1025200080919E0290919F020E94C8078BEA93E0DF
:102530000E9477058091C9029091CA0220919E0263
:1025400030919F02821B930B0E94C80780919502D5
:10255000882341F18FE993E00E94770580918F02F3
:10256000909190020E949A0784E993E00E94770577
:10257000A0918F02B09190022DE330E00E942116CD
:102580006B017C014AE0F7FE0BC08DE20E947205F0
:1025900066277727CB016C197D098E099F094AE0D0
:1025A0000E940E078CE893E00E947705872D8770C4
:1025B00090E00E949A0781E893E00E9477054AE044
:1025C00050E06C8D7D8D8E8D9F8D0E94520795E021
:1025D000691211C089E793E00E9477056AE070E014
:1025E0008D890E9454078FE693E00E947705882D1D
:1025F00090E00E949A0786E693E00E9477056AE0E1
:1026000070E0812F0E945407992049F08EE593E0F5
:102610000E9477056AE070E0892D0E9454078DE4DE
:1026200093E00E947705EA8DFB8D1191FB8FEA8F75
:10263000103118F480E30E94720560E170E0812F90
:102640000E9454072E893F894A8D5B8D24173507D8
:1026500051F789E493E00E945B0710929502109273
:10266000CB028091D202811126C00E94F203009118
:102670001601109117012091180130911901601B6A
:10268000710B820B930B97FD4FC080E194E00E9489
:102690005B070E94F203605F784D8F4F9F4F6093FE
:1026A000160170931701809318019093190180917E
:1026B000D2028823C9F18091D002811135C00E94D5
:1026C000F2030091910210919202209193023091B5
:1026D0009402601B710B820B930B97FD25C088E25F
:1026E0000E94240682FD12C084E20E94240690E02B
:1026F0009195819591092091A00221119DC09093FF
:102700009F0280939E0281E08093A0020E94F203C8
:102710006C507E4F8F4F9F4F609391027093920247
:10272000809393029093940280E090E0892B09F4C7
:1027300031C90E9400002EC910E0912C8F2C2B145F
:1027400009F474CE9090210110E091102DCE812CCF
:102750006DCE11E0912CFBCF12E067CE13E065CE79
:10276000FF2009F4BBCE8091C9029091CA0297FD67
:1027700001969595879599275C894B893A8929898E
:102780008820E9F19F938F938D891F928F931F92D9
:102790005F931F924F931F923F931F922F9387E453
:1027A00092E09F938F931F9280E18F9341E050E0DE
:1027B0004C0F5D1F5F934F930E945016CE01019600
:1027C0000E9401078FE491E00E9401070FB6F89480
:1027D000DEBF0FBECDBF8091960290919702A0916F
:1027E0009802B09199020196A11DB11D80939602A5
:1027F00090939702A0939802B09399026FCE9F9303
:102800008F931F925F931F924F931F923F931F923C
:102810002F93E2E6F2E0FF93EF931F9280E18F9314
:1028200041E050E04C0F5D1F5F934F930E945016A4
:10283000C5CF8DEB93E067CE20919E0230919F0231
:10284000821B930B43E0959587954A95E1F7820F9C
:10285000931F90939F0280939E0258CF89819A8103
:10286000AB81BC81898B9A8BAB8BBC8B8091BD0279
:102870009091BE02A091BF02B091C0020196A11D2D
:10288000B11D8093BD029093BE02A093BF02B0938E
:10289000C0028F2C02E0AACDEAE1F3E0138212829B
:1028A00088EE93E0A0E0B0E084839583A683B783AD
:1028B00086E291E0918380838FEF9FEF95878487F5
:1028C0000895B0E0A0E0E7E6F4E10C94C2155C01E5
:1028D0006B017A016115710519F0FB019183808309
:1028E000E114F10451F0C7010297839730F040E002
:1028F00030E020E090E072C05E01E5012196F50134
:102900001081812F90E00E947815892BA9F71D3244
:1029100001F52196F501118101E0E114F10409F4BA
:10292000DAC0F0E1EF16F10409F082C0103359F477
:1029300088818F7D883509F076C0198122960260E2
:10294000F0E1EF2EF12C812C912CA12C88E0B82EF7
:102950008CC01B3221F4E5012296F501118100E0C3
:10296000DCCFEAE0EE16F10409F4BBC0F0E1EF16AB
:10297000F10409F06DC0E7CF78E0E72EF12C812C4F
:10298000912CA12C60E1B62E70C03FE9310F3A3195
:1029900028F439EA332E80C021E09AC0302F3170FC
:1029A000C114D10431F0222309F12197F601D1831A
:1029B000C08327FF21C060E070E080E090E8311123
:1029C00004C06FEF7FEF8FEF9FE722E230E030939C
:1029D0006B0320936A03462F372F282F642F732F02
:1029E000822FCDB7DEB7E1E10C94DE1501FF04C004
:1029F0002297F601D183C083332341F090958095CF
:102A0000709561957F4F8F4F9F4FE5CF97FFE3CF35
:102A100082E290E090936B0380936A036FEF7FEF05
:102A20008FEF9FE7D8CF10E3E114F10409F4A4CFAE
:102A300028E0E216F10409F4A2CF0CF092CF812C29
:102A4000912CA12CE0E4BE2E82E0E816F10469F09E
:102A500060E070E080E090E897010F2C000C440BE0
:102A6000550B0E94941549015A0120E060E070E086
:102A7000CB0127010F2C000C66087708FE0150EDF2
:102A8000352E310E39E0331540F43FEB310F3A313A
:102A900008F07BCF49EC342E310E3E141F040CF0AD
:102AA0007DCF27FD15C086169706A806B90678F0D3
:102AB000A30192010E948415630D711D811D911D5A
:102AC00061307105810520E8920708F465CF2FEF8A
:102AD00021961081D3CF103309F42ACF2AE0E22EB9
:102AE000F12C9CEC892E982CA82C9CE0B92EBDCF03
:102AF00091110C948115803219F089508550C8F7D6
:102B00000895992788270895DB018F939F930E944A
:102B1000B615BF91AF91A29F800D911DA39F900DFF
:102B2000B29F900D11240895A1E21A2EAA1BBB1B7F
:102B3000FD010DC0AA1FBB1FEE1FFF1FA217B30789
:102B4000E407F50720F0A21BB30BE40BF50B661F9F
:102B5000771F881F991F1A9469F760957095809563
:102B600090959B01AC01BD01CF0108950E94F8151D
:102B7000A59F900DB49F900DA49F800D911D1124D1
:102B800008952F923F924F925F926F927F928F9211
:102B90009F92AF92BF92CF92DF92EF92FF920F93EC
:102BA0001F93CF93DF93CDB7DEB7CA1BDB0B0FB6F6
:102BB000F894DEBF0FBECDBF09942A8839884888B3
:102BC0005F846E847D848C849B84AA84B984C88449
:102BD000DF80EE80FD800C811B81AA81B981CE0F40
:102BE000D11D0FB6F894DEBF0FBECDBFED01089525
:102BF000A29FB001B39FC001A39F700D811D11243E
:102C0000911DB29F700D811D1124911D089597FB98
:102C1000072E16F4009407D077FD09D00E942816DD
:102C200007FC05D03EF4909581959F4F08957095CF
:102C300061957F4F0895EE0FFF1F0590F491E02DF1
:102C400009940E94F815B7FF0895821B930B08950D
:102C5000AA1BBB1B51E107C0AA1FBB1FA617B707C2
:102C600010F0A61BB70B881F991F5A95A9F78095DE
:102C70009095BC01CD010895FC018191861721F04A
:102C80008823D9F7992708953197CF010895FB013B
:102C9000DC018D91019080190110D9F3990B0895F1
:102CA000AEE0B0E0E6E5F6E10C94CF150D891E89A3
:102CB0008F89988D26E02C831A83098397FF02C0A1
:102CC00080E090E801979E838D83AE01455E5F4F63
:102CD000698D7A8DCE0101960E9480164D815E81AC
:102CE00057FD0AC02F813885421753070CF49A010B
:102CF000020F131FF80110822E96E4E00C94EB15DE
:102D0000ABE0B0E0E6E8F6E10C94C1157C013B01D4
:102D10008A01FC0117821682838181FFC8C1CE011E
:102D200001965C01F7019381F30193FD859193FF77
:102D300081913F01882309F453C1853239F493FD11
:102D4000859193FF81913F01853229F4B70190E08D
:102D50000E947018E7CF912C212C312CFFE1F31544
:102D600038F08B3211F190F4803209F1833229F17D
:102D700037FC3CC020ED280F2A3050F536FE20C02D
:102D80008AE0989E200D1124922E06C08D3291F07B
:102D9000803371F7689430F8F30193FD859193FFC8
:102DA00081913F018111DACF21C0689431F8689494
:102DB00032F8F2CF689433F8EFCF689434F8ECCF60
:102DC000EAE02E9E200D1124222E689435F8E4CFDF
:102DD0008E3229F436FC04C1689436F8DDCF8C3687
:102DE00019F4689437F8D8CF8836B1F2982F9F7DC0
:102DF00095549330E0F08336A1F18337C1F18335E8
:102E000009F063C02801F2E04F0E511CF801C080A8
:102E1000D180692D70E036FC02C06FEF7FEFC601F4
:102E20000E945A184C01689437F882010AC00C5F5E
:102E30001F4FFFE3F98388248394912C6501E89464
:102E400037F833FE2DC0522C8114910471F55520B2
:102E500009F468CFB70180E290E00E9470185A949C
:102E6000F6CFF801808189830E5F1F4FE4CF2801E0
:102E7000F2E04F0E511CF801C080D180692D70E046
:102E800036FC02C06FEF7FEFC6010E9465184C014F
:102E90008201D5CFB70180E290E00E9470182A9499
:102EA0002814190409F0B0F7CECFF60137FC85914C
:102EB00037FE81916F01B70190E00E9470185110A8
:102EC0005A94F1E08F1A9108BFCF843619F08936F1
:102ED00009F077C0F80137FE6BC060817181828193
:102EE00093810C5F1F4FF32DFF763F2E97FF09C094
:102EF00090958095709561957F4F8F4F9F4F689407
:102F000037F82AE030E0A5010E94A018C82ECA18A0
:102F10008C2C432C36FE0CC0E89440F8C91440F4C5
:102F200034FE05C032FC03C0F32DFE7E4F2E892CEB
:102F300044FE95C0FE01EC0DF11D8081803309F047
:102F400087C0242D297E422E842D8870582E43FC64
:102F500095C040FE8FC09C2C821418F42C0C922C2F
:102F6000981844FE91C0B70180E390E00E94701869
:102F700042FE09C088E790E041FE02C088E590E08B
:102F8000B7010E947018C91408F48AC0CA94D12CE1
:102F90009FEFC91AD90ACA0CDB1CF60182916F0196
:102FA000B70190E00E947018AC14BD04B1F74FCF88
:102FB00060817181072E000C880B990B0E5F1F4FEB
:102FC00092CFD32CE894D4F82AE030E0853739F159
:102FD000232D297FD22E8F3601F148F48835A9F0B0
:102FE000F701868197812B96E2E10C94DD158037FD
:102FF00049F08837A9F7D4FE02C06894D2F820E1DE
:1030000030E00DC06894D4F8F6CF34FE03C0822FB0
:103010008660D82E20E132E002C028E030E0F801DE
:10302000D7FE0FC060817181828193810C5F1F4F39
:10303000A5010E94A018C82ECA183D2CE89437F8A4
:1030400067CF6081718190E080E00E5F1F4FF0CF0D
:1030500042FC02C0839478CF8394839475CF842DEF
:10306000867809F471CFF6CFB70180E290E00E9434
:10307000701883948214C0F3512C73CF522C5818BB
:10308000821408F46ECFF8CF842D867809F47BCFB4
:103090008BE241FE80E247FC8DE2B70190E071CF08
:1030A000B70180E390E00E9470189A946CCF8FEF84
:1030B0009FEF99CFFC010590615070400110D8F747
:1030C000809590958E0F9F1F0895FC016150704070
:1030D00001900110D8F7809590958E0F9F1F08954D
:1030E0000F931F93CF93DF93182F092FEB018B8141
:1030F00081FD09C01FEF0FEF812F902FDF91CF913E
:103100001F910F91089582FF14C02E813F818C8101
:103110009D81281739073CF4E881F981CF01019698
:103120009983888310838E819F8101969F838E83EC
:10313000E3CFE885F985812F0995892BA1F3DACFB3
:10314000FA01AA27283051F1203181F1E8946F93D8
:103150006E7F6E5F7F4F8F4F9F4FAF4FB1E03ED07E
:10316000B4E03CD0670F781F891F9A1FA11D680F1C
:10317000791F8A1F911DA11D6A0F711D811D911D4F
:10318000A11D20D009F468943F912AE0269F1124C4
:103190003019305D3193DEF6CF010895462F477028
:1031A000405D4193B3E00FD0C9F7F6CF462F4F7083
:1031B000405D4A3318F0495D31FD4052419302D0E1
:1031C000A9F7EACFB4E0A695979587957795679587
:1031D000BA95C9F700976105710508959B01AC0187
:1031E0000A2E06945795479537952795BA95C9F7AE
:1031F000620F731F841F951FA01D0895F894FFCFC1
:10320000FFFFFFFF00E10000000000001F041F049B
:103210001F041F041F0410270000EB0500888E0008
:103220000101000000005C05D8049D059205BD0564
:10323000A105AD0500C18081000000352E332E317F
:103240002D74657272610000040502060100030D11
:103250000A007374617475730076657273696F6EBA
:1032600000626164206172670066736B746167005D
:10327000756E737570706F727465642070726573AB
:10328000657400727862770072785F73697A65009E
:1032900072616E6765006D6F64756C6174696F6EE5
:1032A0000066736B006F6F6B00727373695F746895
:1032B000726573680065636300303D6F6666203138
:1032C0003D6372632D676174656420323D616C7784
:1032D0006179730069645F676174650030206F72A3
:1032E000203100736E725F6D696E0072616E67658A
:1032F00020302D34300073796E635F73697A650016
:1033000072616E676520312D380073796E635F746A
:103310006F6C0072616E676520302D370073796EB7
:10332000635F76616C0077616E74206964783A68D7
:103330006578007265677265616400756E6B6E6FAB
:10334000776E206B65790030312530325825303268
:1033500058253032582530325825303258253032F1
:103360005800303025303258253032582530325808
:0A3370002530325825303258000095
:00000001FF
